{
  "_format": "hh-sol-artifact-1",
  "contractName": "BlueCarbonMRV",
  "sourceName": "contracts/BlueCarbonMRV.sol",
  "abi": [
    {
      "inputs": [],
      "stateMutability": "nonpayable",
      "type": "constructor"
    },
    {
      "anonymous": false,
      "inputs": [
        {
          "indexed": true,
          "internalType": "address",
          "name": "owner",
          "type": "address"
        },
        {
          "indexed": true,
          "internalType": "address",
          "name": "spender",
          "type": "address"
        },
        {
          "indexed": false,
          "internalType": "uint256",
          "name": "value",
          "type": "uint256"
        }
      ],
      "name": "Approval",
      "type": "event"
    },
    {
      "anonymous": false,
      "inputs": [
        {
          "indexed": false,
          "internalType": "address",
          "name": "companyWallet",
          "type": "address"
        },
        {
          "indexed": false,
          "internalType": "uint256",
          "name": "creditsAllocated",
          "type": "uint256"
        }
      ],
      "name": "CompanyCreditsAllocated",
      "type": "event"
    },
    {
      "anonymous": false,
      "inputs": [
        {
          "indexed": true,
          "internalType": "address",
          "name": "wallet",
          "type": "address"
        },
        {
          "indexed": false,
          "internalType": "uint256",
          "name": "amount",
          "type": "uint256"
        }
      ],
      "name": "CompanyCreditsBurned",
      "type": "event"
    },
    {
      "anonymous": false,
      "inputs": [
        {
          "indexed": false,
          "internalType": "string",
          "name": "recordId",
          "type": "string"
        },
        {
          "indexed": false,
          "internalType": "address",
          "name": "ngoWallet",
          "type": "address"
        },
        {
          "indexed": false,
          "internalType": "string",
          "name": "dataHash",
          "type": "string"
        },
        {
          "indexed": false,
          "internalType": "uint256",
          "name": "treeCount",
          "type": "uint256"
        }
      ],
      "name": "MRVAdded",
      "type": "event"
    },
    {
      "anonymous": false,
      "inputs": [
        {
          "indexed": false,
          "internalType": "string",
          "name": "recordId",
          "type": "string"
        },
        {
          "indexed": false,
          "internalType": "uint256",
          "name": "creditsIssued",
          "type": "uint256"
        }
      ],
      "name": "MRVVerified",
      "type": "event"
    },
    {
      "anonymous": false,
      "inputs": [
        {
          "indexed": true,
          "internalType": "address",
          "name": "previousOwner",
          "type": "address"
        },
        {
          "indexed": true,
          "internalType": "address",
          "name": "newOwner",
          "type": "address"
        }
      ],
      "name": "OwnershipTransferred",
      "type": "event"
    },
    {
      "anonymous": false,
      "inputs": [
        {
          "indexed": true,
          "internalType": "address",
          "name": "wallet",
          "type": "address"
        },
        {
          "indexed": false,
          "internalType": "uint256",
          "name": "amount",
          "type": "uint256"
        }
      ],
      "name": "TokensMinted",
      "type": "event"
    },
    {
      "anonymous": false,
      "inputs": [
        {
          "indexed": true,
          "internalType": "address",
          "name": "from",
          "type": "address"
        },
        {
          "indexed": true,
          "internalType": "address",
          "name": "to",
          "type": "address"
        },
        {
          "indexed": false,
          "internalType": "uint256",
          "name": "value",
          "type": "uint256"
        }
      ],
      "name": "Transfer",
      "type": "event"
    },
    {
      "inputs": [
        {
          "internalType": "string",
          "name": "_recordId",
          "type": "string"
        },
        {
          "internalType": "string",
          "name": "_dataHash",
          "type": "string"
        },
        {
          "internalType": "uint256",
          "name": "_treeCount",
          "type": "uint256"
        },
        {
          "internalType": "address",
          "name": "_ngoWallet",
          "type": "address"
        }
      ],
      "name": "addMRVRecord",
      "outputs": [],
      "stateMutability": "nonpayable",
      "type": "function"
    },
    {
      "inputs": [
        {
          "internalType": "address[]",
          "name": "_wallets",
          "type": "address[]"
        },
        {
          "internalType": "uint256[]",
          "name": "_credits",
          "type": "uint256[]"
        }
      ],
      "name": "allocateCreditsToCompanies",
      "outputs": [],
      "stateMutability": "nonpayable",
      "type": "function"
    },
    {
      "inputs": [
        {
          "internalType": "address",
          "name": "_companyWallet",
          "type": "address"
        },
        {
          "internalType": "uint256",
          "name": "_credits",
          "type": "uint256"
        }
      ],
      "name": "allocateCreditsToCompany",
      "outputs": [],
      "stateMutability": "nonpayable",
      "type": "function"
    },
    {
      "inputs": [
        {
          "internalType": "address",
          "name": "owner",
          "type": "address"
        },
        {
          "internalType": "address",
          "name": "spender",
          "type": "address"
        }
      ],
      "name": "allowance",
      "outputs": [
        {
          "internalType": "uint256",
          "name": "",
          "type": "uint256"
        }
      ],
      "stateMutability": "view",
      "type": "function"
    },
    {
      "inputs": [
        {
          "internalType": "address",
          "name": "spender",
          "type": "address"
        },
        {
          "internalType": "uint256",
          "name": "amount",
          "type": "uint256"
        }
      ],
      "name": "approve",
      "outputs": [
        {
          "internalType": "bool",
          "name": "",
          "type": "bool"
        }
      ],
      "stateMutability": "nonpayable",
      "type": "function"
    },
    {
      "inputs": [
        {
          "internalType": "address",
          "name": "account",
          "type": "address"
        }
      ],
      "name": "balanceOf",
      "outputs": [
        {
          "internalType": "uint256",
          "name": "",
          "type": "uint256"
        }
      ],
      "stateMutability": "view",
      "type": "function"
    },
    {
      "inputs": [
        {
          "internalType": "uint256",
          "name": "_credits",
          "type": "uint256"
        }
      ],
      "name": "burnCompanyCredits",
      "outputs": [],
      "stateMutability": "nonpayable",
      "type": "function"
    },
    {
      "inputs": [
        {
          "internalType": "address",
          "name": "",
          "type": "address"
        }
      ],
      "name": "companyCredits",
      "outputs": [
        {
          "internalType": "address",
          "name": "wallet",
          "type": "address"
        },
        {
          "internalType": "uint256",
          "name": "credits",
          "type": "uint256"
        }
      ],
      "stateMutability": "view",
      "type": "function"
    },
    {
      "inputs": [],
      "name": "decimals",
      "outputs": [
        {
          "internalType": "uint8",
          "name": "",
          "type": "uint8"
        }
      ],
      "stateMutability": "view",
      "type": "function"
    },
    {
      "inputs": [
        {
          "internalType": "address",
          "name": "spender",
          "type": "address"
        },
        {
          "internalType": "uint256",
          "name": "subtractedValue",
          "type": "uint256"
        }
      ],
      "name": "decreaseAllowance",
      "outputs": [
        {
          "internalType": "bool",
          "name": "",
          "type": "bool"
        }
      ],
      "stateMutability": "nonpayable",
      "type": "function"
    },
    {
      "inputs": [
        {
          "internalType": "string[]",
          "name": "recordIds",
          "type": "string[]"
        }
      ],
      "name": "getAllMRVRecords",
      "outputs": [
        {
          "components": [
            {
              "internalType": "string",
              "name": "recordId",
              "type": "string"
            },
            {
              "internalType": "string",
              "name": "dataHash",
              "type": "string"
            },
            {
              "internalType": "uint256",
              "name": "treeCount",
              "type": "uint256"
            },
            {
              "internalType": "uint256",
              "name": "credits",
              "type": "uint256"
            },
            {
              "internalType": "address",
              "name": "owner",
              "type": "address"
            },
            {
              "internalType": "bool",
              "name": "verified",
              "type": "bool"
            }
          ],
          "internalType": "struct BlueCarbonMRV.MRVRecord[]",
          "name": "",
          "type": "tuple[]"
        }
      ],
      "stateMutability": "view",
      "type": "function"
    },
    {
      "inputs": [
        {
          "internalType": "address",
          "name": "_companyWallet",
          "type": "address"
        }
      ],
      "name": "getCompanyCredits",
      "outputs": [
        {
          "internalType": "uint256",
          "name": "",
          "type": "uint256"
        }
      ],
      "stateMutability": "view",
      "type": "function"
    },
    {
      "inputs": [
        {
          "internalType": "string",
          "name": "_recordId",
          "type": "string"
        }
      ],
      "name": "getMRVRecord",
      "outputs": [
        {
          "internalType": "string",
          "name": "",
          "type": "string"
        },
        {
          "internalType": "string",
          "name": "",
          "type": "string"
        },
        {
          "internalType": "uint256",
          "name": "",
          "type": "uint256"
        },
        {
          "internalType": "uint256",
          "name": "",
          "type": "uint256"
        },
        {
          "internalType": "address",
          "name": "",
          "type": "address"
        },
        {
          "internalType": "bool",
          "name": "",
          "type": "bool"
        }
      ],
      "stateMutability": "view",
      "type": "function"
    },
    {
      "inputs": [
        {
          "internalType": "address",
          "name": "spender",
          "type": "address"
        },
        {
          "internalType": "uint256",
          "name": "addedValue",
          "type": "uint256"
        }
      ],
      "name": "increaseAllowance",
      "outputs": [
        {
          "internalType": "bool",
          "name": "",
          "type": "bool"
        }
      ],
      "stateMutability": "nonpayable",
      "type": "function"
    },
    {
      "inputs": [],
      "name": "name",
      "outputs": [
        {
          "internalType": "string",
          "name": "",
          "type": "string"
        }
      ],
      "stateMutability": "view",
      "type": "function"
    },
    {
      "inputs": [],
      "name": "owner",
      "outputs": [
        {
          "internalType": "address",
          "name": "",
          "type": "address"
        }
      ],
      "stateMutability": "view",
      "type": "function"
    },
    {
      "inputs": [
        {
          "internalType": "string",
          "name": "",
          "type": "string"
        }
      ],
      "name": "records",
      "outputs": [
        {
          "internalType": "string",
          "name": "recordId",
          "type": "string"
        },
        {
          "internalType": "string",
          "name": "dataHash",
          "type": "string"
        },
        {
          "internalType": "uint256",
          "name": "treeCount",
          "type": "uint256"
        },
        {
          "internalType": "uint256",
          "name": "credits",
          "type": "uint256"
        },
        {
          "internalType": "address",
          "name": "owner",
          "type": "address"
        },
        {
          "internalType": "bool",
          "name": "verified",
          "type": "bool"
        }
      ],
      "stateMutability": "view",
      "type": "function"
    },
    {
      "inputs": [],
      "name": "renounceOwnership",
      "outputs": [],
      "stateMutability": "nonpayable",
      "type": "function"
    },
    {
      "inputs": [],
      "name": "symbol",
      "outputs": [
        {
          "internalType": "string",
          "name": "",
          "type": "string"
        }
      ],
      "stateMutability": "view",
      "type": "function"
    },
    {
      "inputs": [],
      "name": "totalSupply",
      "outputs": [
        {
          "internalType": "uint256",
          "name": "",
          "type": "uint256"
        }
      ],
      "stateMutability": "view",
      "type": "function"
    },
    {
      "inputs": [
        {
          "internalType": "address",
          "name": "to",
          "type": "address"
        },
        {
          "internalType": "uint256",
          "name": "amount",
          "type": "uint256"
        }
      ],
      "name": "transfer",
      "outputs": [
        {
          "internalType": "bool",
          "name": "",
          "type": "bool"
        }
      ],
      "stateMutability": "nonpayable",
      "type": "function"
    },
    {
      "inputs": [
        {
          "internalType": "address",
          "name": "_to",
          "type": "address"
        },
        {
          "internalType": "uint256",
          "name": "_credits",
          "type": "uint256"
        }
      ],
      "name": "transferCompanyCredits",
      "outputs": [],
      "stateMutability": "nonpayable",
      "type": "function"
    },
    {
      "inputs": [
        {
          "internalType": "address",
          "name": "from",
          "type": "address"
        },
        {
          "internalType": "address",
          "name": "to",
          "type": "address"
        },
        {
          "internalType": "uint256",
          "name": "amount",
          "type": "uint256"
        }
      ],
      "name": "transferFrom",
      "outputs": [
        {
          "internalType": "bool",
          "name": "",
          "type": "bool"
        }
      ],
      "stateMutability": "nonpayable",
      "type": "function"
    },
    {
      "inputs": [
        {
          "internalType": "address",
          "name": "newOwner",
          "type": "address"
        }
      ],
      "name": "transferOwnership",
      "outputs": [],
      "stateMutability": "nonpayable",
      "type": "function"
    },
    {
      "inputs": [
        {
          "internalType": "string",
          "name": "_recordId",
          "type": "string"
        },
        {
          "internalType": "uint256",
          "name": "_tokensPerTree",
          "type": "uint256"
        }
      ],
      "name": "verifyMRV",
      "outputs": [],
      "stateMutability": "nonpayable",
      "type": "function"
    }
  ],
  "bytecode": "0x60806040523480156200001157600080fd5b506040518060400160405280601181526020017f426c7565436172626f6e204372656469740000000000000000000000000000008152506040518060400160405280600381526020017f424343000000000000000000000000000000000000000000000000000000000081525081600390816200008f919062000412565b508060049081620000a1919062000412565b505050620000c4620000b8620000ca60201b60201c565b620000d260201b60201c565b620004f9565b600033905090565b6000600560009054906101000a900473ffffffffffffffffffffffffffffffffffffffff16905081600560006101000a81548173ffffffffffffffffffffffffffffffffffffffff021916908373ffffffffffffffffffffffffffffffffffffffff1602179055508173ffffffffffffffffffffffffffffffffffffffff168173ffffffffffffffffffffffffffffffffffffffff167f8be0079c531659141344cd1fd0a4f28419497f9722a3daafe3b4186f6b6457e060405160405180910390a35050565b600081519050919050565b7f4e487b7100000000000000000000000000000000000000000000000000000000600052604160045260246000fd5b7f4e487b7100000000000000000000000000000000000000000000000000000000600052602260045260246000fd5b600060028204905060018216806200021a57607f821691505b60208210810362000230576200022f620001d2565b5b50919050565b60008190508160005260206000209050919050565b60006020601f8301049050919050565b600082821b905092915050565b6000600883026200029a7fffffffffffffffffffffffffffffffffffffffffffffffffffffffffffffffff826200025b565b620002a686836200025b565b95508019841693508086168417925050509392505050565b6000819050919050565b6000819050919050565b6000620002f3620002ed620002e784620002be565b620002c8565b620002be565b9050919050565b6000819050919050565b6200030f83620002d2565b620003276200031e82620002fa565b84845462000268565b825550505050565b600090565b6200033e6200032f565b6200034b81848462000304565b505050565b5b8181101562000373576200036760008262000334565b60018101905062000351565b5050565b601f821115620003c2576200038c8162000236565b62000397846200024b565b81016020851015620003a7578190505b620003bf620003b6856200024b565b83018262000350565b50505b505050565b600082821c905092915050565b6000620003e760001984600802620003c7565b1980831691505092915050565b6000620004028383620003d4565b9150826002028217905092915050565b6200041d8262000198565b67ffffffffffffffff811115620004395762000438620001a3565b5b62000445825462000201565b6200045282828562000377565b600060209050601f8311600181146200048a576000841562000475578287015190505b620004818582620003f4565b865550620004f1565b601f1984166200049a8662000236565b60005b82811015620004c4578489015182556001820191506020850194506020810190506200049d565b86831015620004e45784890151620004e0601f891682620003d4565b8355505b6001600288020188555050505b505050505050565b613eaa80620005096000396000f3fe608060405234801561001057600080fd5b50600436106101735760003560e01c806377e1820a116100de578063a9059cbb11610097578063c52e528211610071578063c52e52821461047a578063d37e4145146104aa578063dd62ed3e146104db578063f2fde38b1461050b57610173565b8063a9059cbb14610412578063a9f177bf14610442578063b480664a1461045e57610173565b806377e1820a146103395780638b228d301461036e5780638da5cb5b1461038a57806395d89b41146103a8578063a457c2d7146103c6578063a7b41bce146103f657610173565b8063395093511161013057806339509351146102625780633c0c1c39146102925780634687d739146102ae578063541e771d146102ca57806370a08231146102ff578063715018a61461032f57610173565b806306fdde0314610178578063095ea7b31461019657806318160ddd146101c6578063205b2d55146101e457806323b872dd14610214578063313ce56714610244575b600080fd5b610180610527565b60405161018d919061234b565b60405180910390f35b6101b060048036038101906101ab9190612415565b6105b9565b6040516101bd9190612470565b60405180910390f35b6101ce6105dc565b6040516101db919061249a565b60405180910390f35b6101fe60048036038101906101f991906126d0565b6105e6565b60405161020b91906128e2565b60405180910390f35b61022e60048036038101906102299190612904565b610874565b60405161023b9190612470565b60405180910390f35b61024c6108a3565b6040516102599190612973565b60405180910390f35b61027c60048036038101906102779190612415565b6108ac565b6040516102899190612470565b60405180910390f35b6102ac60048036038101906102a7919061298e565b6108e3565b005b6102c860048036038101906102c39190612415565b610a40565b005b6102e460048036038101906102df91906129bb565b610c4a565b6040516102f696959493929190612a13565b60405180910390f35b61031960048036038101906103149190612a82565b610dd9565b604051610326919061249a565b60405180910390f35b610337610e21565b005b610353600480360381019061034e91906129bb565b610e35565b60405161036596959493929190612a13565b60405180910390f35b61038860048036038101906103839190612aaf565b611048565b005b610392611212565b60405161039f9190612b4e565b60405180910390f35b6103b061123c565b6040516103bd919061234b565b60405180910390f35b6103e060048036038101906103db9190612415565b6112ce565b6040516103ed9190612470565b60405180910390f35b610410600480360381019061040b9190612415565b611345565b005b61042c60048036038101906104279190612415565b6114b8565b6040516104399190612470565b60405180910390f35b61045c60048036038101906104579190612cef565b6114db565b005b61047860048036038101906104739190612d67565b611589565b005b610494600480360381019061048f9190612a82565b61178f565b6040516104a1919061249a565b60405180910390f35b6104c460048036038101906104bf9190612a82565b6117db565b6040516104d2929190612dc3565b60405180910390f35b6104f560048036038101906104f09190612dec565b61181f565b604051610502919061249a565b60405180910390f35b61052560048036038101906105209190612a82565b6118a6565b005b60606003805461053690612e5b565b80601f016020809104026020016040519081016040528092919081815260200182805461056290612e5b565b80156105af5780601f10610584576101008083540402835291602001916105af565b820191906000526020600020905b81548152906001019060200180831161059257829003601f168201915b5050505050905090565b6000806105c4611929565b90506105d1818585611931565b600191505092915050565b6000600254905090565b60606000825167ffffffffffffffff811115610605576106046124ba565b5b60405190808252806020026020018201604052801561063e57816020015b61062b61226d565b8152602001906001900390816106235790505b50905060005b835181101561086a57600684828151811061066257610661612e8c565b5b60200260200101516040516106779190612ef7565b90815260200160405180910390206040518060c00160405290816000820180546106a090612e5b565b80601f01602080910402602001604051908101604052809291908181526020018280546106cc90612e5b565b80156107195780601f106106ee57610100808354040283529160200191610719565b820191906000526020600020905b8154815290600101906020018083116106fc57829003601f168201915b5050505050815260200160018201805461073290612e5b565b80601f016020809104026020016040519081016040528092919081815260200182805461075e90612e5b565b80156107ab5780601f10610780576101008083540402835291602001916107ab565b820191906000526020600020905b81548152906001019060200180831161078e57829003601f168201915b5050505050815260200160028201548152602001600382015481526020016004820160009054906101000a900473ffffffffffffffffffffffffffffffffffffffff1673ffffffffffffffffffffffffffffffffffffffff1673ffffffffffffffffffffffffffffffffffffffff1681526020016004820160149054906101000a900460ff16151515158152505082828151811061084c5761084b612e8c565b5b6020026020010181905250808061086290612f3d565b915050610644565b5080915050919050565b60008061087f611929565b905061088c858285611afa565b610897858585611b86565b60019150509392505050565b60006012905090565b6000806108b7611929565b90506108d88185856108c9858961181f565b6108d39190612f85565b611931565b600191505092915050565b80600760003373ffffffffffffffffffffffffffffffffffffffff1673ffffffffffffffffffffffffffffffffffffffff168152602001908152602001600020600101541015610968576040517f08c379a000000000000000000000000000000000000000000000000000000000815260040161095f90613005565b60405180910390fd5b60006109726108a3565b600a61097e9190613158565b8261098991906131a3565b905081600760003373ffffffffffffffffffffffffffffffffffffffff1673ffffffffffffffffffffffffffffffffffffffff16815260200190815260200160002060010160008282546109dd91906131e5565b925050819055506109ee3382611dfc565b3373ffffffffffffffffffffffffffffffffffffffff167ffbc21b6f3a95da39b5511ca764197f5dac7fdd827344c2bf1b741d712064292783604051610a34919061249a565b60405180910390a25050565b610a48611fc9565b600073ffffffffffffffffffffffffffffffffffffffff168273ffffffffffffffffffffffffffffffffffffffff1603610ab7576040517f08c379a0000000000000000000000000000000000000000000000000000000008152600401610aae90613265565b60405180910390fd5b81600760008473ffffffffffffffffffffffffffffffffffffffff1673ffffffffffffffffffffffffffffffffffffffff16815260200190815260200160002060000160006101000a81548173ffffffffffffffffffffffffffffffffffffffff021916908373ffffffffffffffffffffffffffffffffffffffff16021790555080600760008473ffffffffffffffffffffffffffffffffffffffff1673ffffffffffffffffffffffffffffffffffffffff1681526020019081526020016000206001016000828254610b8a9190612f85565b925050819055506000610b9b6108a3565b600a610ba79190613158565b82610bb291906131a3565b9050610bbe8382612047565b7f639bc352d0d34919f48a15059affefe56551db9912f7f75b8e171dbabccb7cb28383604051610bef929190612dc3565b60405180910390a18273ffffffffffffffffffffffffffffffffffffffff167f3f2c9d57c068687834f0de942a9babb9e5acab57d516d3480a3c16ee165a427382604051610c3d919061249a565b60405180910390a2505050565b600681805160208101820180518482526020830160208501208183528095505050505050600091509050806000018054610c8390612e5b565b80601f0160208091040260200160405190810160405280929190818152602001828054610caf90612e5b565b8015610cfc5780601f10610cd157610100808354040283529160200191610cfc565b820191906000526020600020905b815481529060010190602001808311610cdf57829003601f168201915b505050505090806001018054610d1190612e5b565b80601f0160208091040260200160405190810160405280929190818152602001828054610d3d90612e5b565b8015610d8a5780601f10610d5f57610100808354040283529160200191610d8a565b820191906000526020600020905b815481529060010190602001808311610d6d57829003601f168201915b5050505050908060020154908060030154908060040160009054906101000a900473ffffffffffffffffffffffffffffffffffffffff16908060040160149054906101000a900460ff16905086565b60008060008373ffffffffffffffffffffffffffffffffffffffff1673ffffffffffffffffffffffffffffffffffffffff168152602001908152602001600020549050919050565b610e29611fc9565b610e33600061219d565b565b6060806000806000806000600688604051610e509190612ef7565b90815260200160405180910390206040518060c0016040529081600082018054610e7990612e5b565b80601f0160208091040260200160405190810160405280929190818152602001828054610ea590612e5b565b8015610ef25780601f10610ec757610100808354040283529160200191610ef2565b820191906000526020600020905b815481529060010190602001808311610ed557829003601f168201915b50505050508152602001600182018054610f0b90612e5b565b80601f0160208091040260200160405190810160405280929190818152602001828054610f3790612e5b565b8015610f845780601f10610f5957610100808354040283529160200191610f84565b820191906000526020600020905b815481529060010190602001808311610f6757829003601f168201915b5050505050815260200160028201548152602001600382015481526020016004820160009054906101000a900473ffffffffffffffffffffffffffffffffffffffff1673ffffffffffffffffffffffffffffffffffffffff1673ffffffffffffffffffffffffffffffffffffffff1681526020016004820160149054906101000a900460ff1615151515815250509050806000015181602001518260400151836060015184608001518560a001519650965096509650965096505091939550919395565b611050611fc9565b60006006856040516110629190612ef7565b9081526020016040518091039020600001805461107e90612e5b565b9050146110c0576040517f08c379a00000000000000000000000000000000000000000000000000000000081526004016110b7906132d1565b60405180910390fd5b6040518060c00160405280858152602001848152602001838152602001600081526020018273ffffffffffffffffffffffffffffffffffffffff168152602001600015158152506006856040516111179190612ef7565b9081526020016040518091039020600082015181600001908161113a919061349d565b506020820151816001019081611150919061349d565b50604082015181600201556060820151816003015560808201518160040160006101000a81548173ffffffffffffffffffffffffffffffffffffffff021916908373ffffffffffffffffffffffffffffffffffffffff16021790555060a08201518160040160146101000a81548160ff0219169083151502179055509050507fafd63fe29ce4a3ddc94bc1440f49f6b0cc4b03106c863b534e127183d302554a84828585604051611204949392919061356f565b60405180910390a150505050565b6000600560009054906101000a900473ffffffffffffffffffffffffffffffffffffffff16905090565b60606004805461124b90612e5b565b80601f016020809104026020016040519081016040528092919081815260200182805461127790612e5b565b80156112c45780601f10611299576101008083540402835291602001916112c4565b820191906000526020600020905b8154815290600101906020018083116112a757829003601f168201915b5050505050905090565b6000806112d9611929565b905060006112e7828661181f565b90508381101561132c576040517f08c379a000000000000000000000000000000000000000000000000000000000815260040161132390613634565b60405180910390fd5b6113398286868403611931565b60019250505092915050565b60008111611388576040517f08c379a000000000000000000000000000000000000000000000000000000000815260040161137f906136a0565b60405180910390fd5b60006113926108a3565b600a61139e9190613158565b826113a991906131a3565b9050806113b533610dd9565b10156113f6576040517f08c379a00000000000000000000000000000000000000000000000000000000081526004016113ed9061370c565b60405180910390fd5b81600760003373ffffffffffffffffffffffffffffffffffffffff1673ffffffffffffffffffffffffffffffffffffffff168152602001908152602001600020600101600082825461144891906131e5565b9250508190555081600760008573ffffffffffffffffffffffffffffffffffffffff1673ffffffffffffffffffffffffffffffffffffffff16815260200190815260200160002060010160008282546114a19190612f85565b925050819055506114b3338483611b86565b505050565b6000806114c3611929565b90506114d0818585611b86565b600191505092915050565b6114e3611fc9565b8051825114611527576040517f08c379a000000000000000000000000000000000000000000000000000000000815260040161151e90613778565b60405180910390fd5b60005b82518110156115845761157183828151811061154957611548612e8c565b5b602002602001015183838151811061156457611563612e8c565b5b6020026020010151610a40565b808061157c90612f3d565b91505061152a565b505050565b611591611fc9565b60006006836040516115a39190612ef7565b9081526020016040518091039020905060008160000180546115c490612e5b565b905011611606576040517f08c379a00000000000000000000000000000000000000000000000000000000081526004016115fd906137e4565b60405180910390fd5b8060040160149054906101000a900460ff1615611658576040517f08c379a000000000000000000000000000000000000000000000000000000000815260040161164f90613850565b60405180910390fd5b60006116626108a3565b600a61166e9190613158565b83836002015461167e91906131a3565b61168891906131a3565b905080826003018190555060018260040160146101000a81548160ff0219169083151502179055506116de8260040160009054906101000a900473ffffffffffffffffffffffffffffffffffffffff1682612047565b7f5e82b6171a94e9632195b04065b5c92a67845ac0d76ab158be53b4b7c8c98086848260405161170f929190613870565b60405180910390a18160040160009054906101000a900473ffffffffffffffffffffffffffffffffffffffff1673ffffffffffffffffffffffffffffffffffffffff167f3f2c9d57c068687834f0de942a9babb9e5acab57d516d3480a3c16ee165a427382604051611781919061249a565b60405180910390a250505050565b6000600760008373ffffffffffffffffffffffffffffffffffffffff1673ffffffffffffffffffffffffffffffffffffffff168152602001908152602001600020600101549050919050565b60076020528060005260406000206000915090508060000160009054906101000a900473ffffffffffffffffffffffffffffffffffffffff16908060010154905082565b6000600160008473ffffffffffffffffffffffffffffffffffffffff1673ffffffffffffffffffffffffffffffffffffffff16815260200190815260200160002060008373ffffffffffffffffffffffffffffffffffffffff1673ffffffffffffffffffffffffffffffffffffffff16815260200190815260200160002054905092915050565b6118ae611fc9565b600073ffffffffffffffffffffffffffffffffffffffff168173ffffffffffffffffffffffffffffffffffffffff160361191d576040517f08c379a000000000000000000000000000000000000000000000000000000000815260040161191490613912565b60405180910390fd5b6119268161219d565b50565b600033905090565b600073ffffffffffffffffffffffffffffffffffffffff168373ffffffffffffffffffffffffffffffffffffffff16036119a0576040517f08c379a0000000000000000000000000000000000000000000000000000000008152600401611997906139a4565b60405180910390fd5b600073ffffffffffffffffffffffffffffffffffffffff168273ffffffffffffffffffffffffffffffffffffffff1603611a0f576040517f08c379a0000000000000000000000000000000000000000000000000000000008152600401611a0690613a36565b60405180910390fd5b80600160008573ffffffffffffffffffffffffffffffffffffffff1673ffffffffffffffffffffffffffffffffffffffff16815260200190815260200160002060008473ffffffffffffffffffffffffffffffffffffffff1673ffffffffffffffffffffffffffffffffffffffff168152602001908152602001600020819055508173ffffffffffffffffffffffffffffffffffffffff168373ffffffffffffffffffffffffffffffffffffffff167f8c5be1e5ebec7d5bd14f71427d1e84f3dd0314c0f7b2291e5b200ac8c7c3b92583604051611aed919061249a565b60405180910390a3505050565b6000611b06848461181f565b90507fffffffffffffffffffffffffffffffffffffffffffffffffffffffffffffffff8114611b805781811015611b72576040517f08c379a0000000000000000000000000000000000000000000000000000000008152600401611b6990613aa2565b60405180910390fd5b611b7f8484848403611931565b5b50505050565b600073ffffffffffffffffffffffffffffffffffffffff168373ffffffffffffffffffffffffffffffffffffffff1603611bf5576040517f08c379a0000000000000000000000000000000000000000000000000000000008152600401611bec90613b34565b60405180910390fd5b600073ffffffffffffffffffffffffffffffffffffffff168273ffffffffffffffffffffffffffffffffffffffff1603611c64576040517f08c379a0000000000000000000000000000000000000000000000000000000008152600401611c5b90613bc6565b60405180910390fd5b611c6f838383612263565b60008060008573ffffffffffffffffffffffffffffffffffffffff1673ffffffffffffffffffffffffffffffffffffffff16815260200190815260200160002054905081811015611cf5576040517f08c379a0000000000000000000000000000000000000000000000000000000008152600401611cec90613c58565b60405180910390fd5b8181036000808673ffffffffffffffffffffffffffffffffffffffff1673ffffffffffffffffffffffffffffffffffffffff16815260200190815260200160002081905550816000808573ffffffffffffffffffffffffffffffffffffffff1673ffffffffffffffffffffffffffffffffffffffff168152602001908152602001600020600082825401925050819055508273ffffffffffffffffffffffffffffffffffffffff168473ffffffffffffffffffffffffffffffffffffffff167fddf252ad1be2c89b69c2b068fc378daa952ba7f163c4a11628f55a4df523b3ef84604051611de3919061249a565b60405180910390a3611df6848484612268565b50505050565b600073ffffffffffffffffffffffffffffffffffffffff168273ffffffffffffffffffffffffffffffffffffffff1603611e6b576040517f08c379a0000000000000000000000000000000000000000000000000000000008152600401611e6290613cea565b60405180910390fd5b611e7782600083612263565b60008060008473ffffffffffffffffffffffffffffffffffffffff1673ffffffffffffffffffffffffffffffffffffffff16815260200190815260200160002054905081811015611efd576040517f08c379a0000000000000000000000000000000000000000000000000000000008152600401611ef490613d7c565b60405180910390fd5b8181036000808573ffffffffffffffffffffffffffffffffffffffff1673ffffffffffffffffffffffffffffffffffffffff1681526020019081526020016000208190555081600260008282540392505081905550600073ffffffffffffffffffffffffffffffffffffffff168373ffffffffffffffffffffffffffffffffffffffff167fddf252ad1be2c89b69c2b068fc378daa952ba7f163c4a11628f55a4df523b3ef84604051611fb0919061249a565b60405180910390a3611fc483600084612268565b505050565b611fd1611929565b73ffffffffffffffffffffffffffffffffffffffff16611fef611212565b73ffffffffffffffffffffffffffffffffffffffff1614612045576040517f08c379a000000000000000000000000000000000000000000000000000000000815260040161203c90613de8565b60405180910390fd5b565b600073ffffffffffffffffffffffffffffffffffffffff168273ffffffffffffffffffffffffffffffffffffffff16036120b6576040517f08c379a00000000000000000000000000000000000000000000000000000000081526004016120ad90613e54565b60405180910390fd5b6120c260008383612263565b80600260008282546120d49190612f85565b92505081905550806000808473ffffffffffffffffffffffffffffffffffffffff1673ffffffffffffffffffffffffffffffffffffffff168152602001908152602001600020600082825401925050819055508173ffffffffffffffffffffffffffffffffffffffff16600073ffffffffffffffffffffffffffffffffffffffff167fddf252ad1be2c89b69c2b068fc378daa952ba7f163c4a11628f55a4df523b3ef83604051612185919061249a565b60405180910390a361219960008383612268565b5050565b6000600560009054906101000a900473ffffffffffffffffffffffffffffffffffffffff16905081600560006101000a81548173ffffffffffffffffffffffffffffffffffffffff021916908373ffffffffffffffffffffffffffffffffffffffff1602179055508173ffffffffffffffffffffffffffffffffffffffff168173ffffffffffffffffffffffffffffffffffffffff167f8be0079c531659141344cd1fd0a4f28419497f9722a3daafe3b4186f6b6457e060405160405180910390a35050565b505050565b505050565b6040518060c0016040528060608152602001606081526020016000815260200160008152602001600073ffffffffffffffffffffffffffffffffffffffff1681526020016000151581525090565b600081519050919050565b600082825260208201905092915050565b60005b838110156122f55780820151818401526020810190506122da565b60008484015250505050565b6000601f19601f8301169050919050565b600061231d826122bb565b61232781856122c6565b93506123378185602086016122d7565b61234081612301565b840191505092915050565b600060208201905081810360008301526123658184612312565b905092915050565b6000604051905090565b600080fd5b600080fd5b600073ffffffffffffffffffffffffffffffffffffffff82169050919050565b60006123ac82612381565b9050919050565b6123bc816123a1565b81146123c757600080fd5b50565b6000813590506123d9816123b3565b92915050565b6000819050919050565b6123f2816123df565b81146123fd57600080fd5b50565b60008135905061240f816123e9565b92915050565b6000806040838503121561242c5761242b612377565b5b600061243a858286016123ca565b925050602061244b85828601612400565b9150509250929050565b60008115159050919050565b61246a81612455565b82525050565b60006020820190506124856000830184612461565b92915050565b612494816123df565b82525050565b60006020820190506124af600083018461248b565b92915050565b600080fd5b7f4e487b7100000000000000000000000000000000000000000000000000000000600052604160045260246000fd5b6124f282612301565b810181811067ffffffffffffffff82111715612511576125106124ba565b5b80604052505050565b600061252461236d565b905061253082826124e9565b919050565b600067ffffffffffffffff8211156125505761254f6124ba565b5b602082029050602081019050919050565b600080fd5b600080fd5b600067ffffffffffffffff821115612586576125856124ba565b5b61258f82612301565b9050602081019050919050565b82818337600083830152505050565b60006125be6125b98461256b565b61251a565b9050828152602081018484840111156125da576125d9612566565b5b6125e584828561259c565b509392505050565b600082601f830112612602576126016124b5565b5b81356126128482602086016125ab565b91505092915050565b600061262e61262984612535565b61251a565b9050808382526020820190506020840283018581111561265157612650612561565b5b835b8181101561269857803567ffffffffffffffff811115612676576126756124b5565b5b80860161268389826125ed565b85526020850194505050602081019050612653565b5050509392505050565b600082601f8301126126b7576126b66124b5565b5b81356126c784826020860161261b565b91505092915050565b6000602082840312156126e6576126e5612377565b5b600082013567ffffffffffffffff8111156127045761270361237c565b5b612710848285016126a2565b91505092915050565b600081519050919050565b600082825260208201905092915050565b6000819050602082019050919050565b600082825260208201905092915050565b6000612761826122bb565b61276b8185612745565b935061277b8185602086016122d7565b61278481612301565b840191505092915050565b612798816123df565b82525050565b6127a7816123a1565b82525050565b6127b681612455565b82525050565b600060c08301600083015184820360008601526127d98282612756565b915050602083015184820360208601526127f38282612756565b9150506040830151612808604086018261278f565b50606083015161281b606086018261278f565b50608083015161282e608086018261279e565b5060a083015161284160a08601826127ad565b508091505092915050565b600061285883836127bc565b905092915050565b6000602082019050919050565b600061287882612719565b6128828185612724565b93508360208202850161289485612735565b8060005b858110156128d057848403895281516128b1858261284c565b94506128bc83612860565b925060208a01995050600181019050612898565b50829750879550505050505092915050565b600060208201905081810360008301526128fc818461286d565b905092915050565b60008060006060848603121561291d5761291c612377565b5b600061292b868287016123ca565b935050602061293c868287016123ca565b925050604061294d86828701612400565b9150509250925092565b600060ff82169050919050565b61296d81612957565b82525050565b60006020820190506129886000830184612964565b92915050565b6000602082840312156129a4576129a3612377565b5b60006129b284828501612400565b91505092915050565b6000602082840312156129d1576129d0612377565b5b600082013567ffffffffffffffff8111156129ef576129ee61237c565b5b6129fb848285016125ed565b91505092915050565b612a0d816123a1565b82525050565b600060c0820190508181036000830152612a2d8189612312565b90508181036020830152612a418188612312565b9050612a50604083018761248b565b612a5d606083018661248b565b612a6a6080830185612a04565b612a7760a0830184612461565b979650505050505050565b600060208284031215612a9857612a97612377565b5b6000612aa6848285016123ca565b91505092915050565b60008060008060808587031215612ac957612ac8612377565b5b600085013567ffffffffffffffff811115612ae757612ae661237c565b5b612af3878288016125ed565b945050602085013567ffffffffffffffff811115612b1457612b1361237c565b5b612b20878288016125ed565b9350506040612b3187828801612400565b9250506060612b42878288016123ca565b91505092959194509250565b6000602082019050612b636000830184612a04565b92915050565b600067ffffffffffffffff821115612b8457612b836124ba565b5b602082029050602081019050919050565b6000612ba8612ba384612b69565b61251a565b90508083825260208201905060208402830185811115612bcb57612bca612561565b5b835b81811015612bf45780612be088826123ca565b845260208401935050602081019050612bcd565b5050509392505050565b600082601f830112612c1357612c126124b5565b5b8135612c23848260208601612b95565b91505092915050565b600067ffffffffffffffff821115612c4757612c466124ba565b5b602082029050602081019050919050565b6000612c6b612c6684612c2c565b61251a565b90508083825260208201905060208402830185811115612c8e57612c8d612561565b5b835b81811015612cb75780612ca38882612400565b845260208401935050602081019050612c90565b5050509392505050565b600082601f830112612cd657612cd56124b5565b5b8135612ce6848260208601612c58565b91505092915050565b60008060408385031215612d0657612d05612377565b5b600083013567ffffffffffffffff811115612d2457612d2361237c565b5b612d3085828601612bfe565b925050602083013567ffffffffffffffff811115612d5157612d5061237c565b5b612d5d85828601612cc1565b9150509250929050565b60008060408385031215612d7e57612d7d612377565b5b600083013567ffffffffffffffff811115612d9c57612d9b61237c565b5b612da8858286016125ed565b9250506020612db985828601612400565b9150509250929050565b6000604082019050612dd86000830185612a04565b612de5602083018461248b565b9392505050565b60008060408385031215612e0357612e02612377565b5b6000612e11858286016123ca565b9250506020612e22858286016123ca565b9150509250929050565b7f4e487b7100000000000000000000000000000000000000000000000000000000600052602260045260246000fd5b60006002820490506001821680612e7357607f821691505b602082108103612e8657612e85612e2c565b5b50919050565b7f4e487b7100000000000000000000000000000000000000000000000000000000600052603260045260246000fd5b600081905092915050565b6000612ed1826122bb565b612edb8185612ebb565b9350612eeb8185602086016122d7565b80840191505092915050565b6000612f038284612ec6565b915081905092915050565b7f4e487b7100000000000000000000000000000000000000000000000000000000600052601160045260246000fd5b6000612f48826123df565b91507fffffffffffffffffffffffffffffffffffffffffffffffffffffffffffffffff8203612f7a57612f79612f0e565b5b600182019050919050565b6000612f90826123df565b9150612f9b836123df565b9250828201905080821115612fb357612fb2612f0e565b5b92915050565b7f4e6f7420656e6f75676820637265646974730000000000000000000000000000600082015250565b6000612fef6012836122c6565b9150612ffa82612fb9565b602082019050919050565b6000602082019050818103600083015261301e81612fe2565b9050919050565b60008160011c9050919050565b6000808291508390505b600185111561307c5780860481111561305857613057612f0e565b5b60018516156130675780820291505b808102905061307585613025565b945061303c565b94509492505050565b6000826130955760019050613151565b816130a35760009050613151565b81600181146130b957600281146130c3576130f2565b6001915050613151565b60ff8411156130d5576130d4612f0e565b5b8360020a9150848211156130ec576130eb612f0e565b5b50613151565b5060208310610133831016604e8410600b84101617156131275782820a90508381111561312257613121612f0e565b5b613151565b6131348484846001613032565b9250905081840481111561314b5761314a612f0e565b5b81810290505b9392505050565b6000613163826123df565b915061316e83612957565b925061319b7fffffffffffffffffffffffffffffffffffffffffffffffffffffffffffffffff8484613085565b905092915050565b60006131ae826123df565b91506131b9836123df565b92508282026131c7816123df565b915082820484148315176131de576131dd612f0e565b5b5092915050565b60006131f0826123df565b91506131fb836123df565b925082820390508181111561321357613212612f0e565b5b92915050565b7f496e76616c69642077616c6c6574000000000000000000000000000000000000600082015250565b600061324f600e836122c6565b915061325a82613219565b602082019050919050565b6000602082019050818103600083015261327e81613242565b9050919050565b7f5265636f726420616c7265616479206578697374730000000000000000000000600082015250565b60006132bb6015836122c6565b91506132c682613285565b602082019050919050565b600060208201905081810360008301526132ea816132ae565b9050919050565b60008190508160005260206000209050919050565b60006020601f8301049050919050565b600082821b905092915050565b6000600883026133537fffffffffffffffffffffffffffffffffffffffffffffffffffffffffffffffff82613316565b61335d8683613316565b95508019841693508086168417925050509392505050565b6000819050919050565b600061339a613395613390846123df565b613375565b6123df565b9050919050565b6000819050919050565b6133b48361337f565b6133c86133c0826133a1565b848454613323565b825550505050565b600090565b6133dd6133d0565b6133e88184846133ab565b505050565b5b8181101561340c576134016000826133d5565b6001810190506133ee565b5050565b601f82111561345157613422816132f1565b61342b84613306565b8101602085101561343a578190505b61344e61344685613306565b8301826133ed565b50505b505050565b600082821c905092915050565b600061347460001984600802613456565b1980831691505092915050565b600061348d8383613463565b9150826002028217905092915050565b6134a6826122bb565b67ffffffffffffffff8111156134bf576134be6124ba565b5b6134c98254612e5b565b6134d4828285613410565b600060209050601f83116001811461350757600084156134f5578287015190505b6134ff8582613481565b865550613567565b601f198416613515866132f1565b60005b8281101561353d57848901518255600182019150602085019450602081019050613518565b8683101561355a5784890151613556601f891682613463565b8355505b6001600288020188555050505b505050505050565b600060808201905081810360008301526135898187612312565b90506135986020830186612a04565b81810360408301526135aa8185612312565b90506135b9606083018461248b565b95945050505050565b7f45524332303a2064656372656173656420616c6c6f77616e63652062656c6f7760008201527f207a65726f000000000000000000000000000000000000000000000000000000602082015250565b600061361e6025836122c6565b9150613629826135c2565b604082019050919050565b6000602082019050818103600083015261364d81613611565b9050919050565b7f416d6f756e74206d757374206265203e20300000000000000000000000000000600082015250565b600061368a6012836122c6565b915061369582613654565b602082019050919050565b600060208201905081810360008301526136b98161367d565b9050919050565b7f496e73756666696369656e742062616c616e6365000000000000000000000000600082015250565b60006136f66014836122c6565b9150613701826136c0565b602082019050919050565b60006020820190508181036000830152613725816136e9565b9050919050565b7f4172726179206c656e677468206d69736d617463680000000000000000000000600082015250565b60006137626015836122c6565b915061376d8261372c565b602082019050919050565b6000602082019050818103600083015261379181613755565b9050919050565b7f5265636f7264206e6f7420666f756e6400000000000000000000000000000000600082015250565b60006137ce6010836122c6565b91506137d982613798565b602082019050919050565b600060208201905081810360008301526137fd816137c1565b9050919050565b7f416c726561647920766572696669656400000000000000000000000000000000600082015250565b600061383a6010836122c6565b915061384582613804565b602082019050919050565b600060208201905081810360008301526138698161382d565b9050919050565b6000604082019050818103600083015261388a8185612312565b9050613899602083018461248b565b9392505050565b7f4f776e61626c653a206e6577206f776e657220697320746865207a65726f206160008201527f6464726573730000000000000000000000000000000000000000000000000000602082015250565b60006138fc6026836122c6565b9150613907826138a0565b604082019050919050565b6000602082019050818103600083015261392b816138ef565b9050919050565b7f45524332303a20617070726f76652066726f6d20746865207a65726f2061646460008201527f7265737300000000000000000000000000000000000000000000000000000000602082015250565b600061398e6024836122c6565b915061399982613932565b604082019050919050565b600060208201905081810360008301526139bd81613981565b9050919050565b7f45524332303a20617070726f766520746f20746865207a65726f20616464726560008201527f7373000000000000000000000000000000000000000000000000000000000000602082015250565b6000613a206022836122c6565b9150613a2b826139c4565b604082019050919050565b60006020820190508181036000830152613a4f81613a13565b9050919050565b7f45524332303a20696e73756666696369656e7420616c6c6f77616e6365000000600082015250565b6000613a8c601d836122c6565b9150613a9782613a56565b602082019050919050565b60006020820190508181036000830152613abb81613a7f565b9050919050565b7f45524332303a207472616e736665722066726f6d20746865207a65726f20616460008201527f6472657373000000000000000000000000000000000000000000000000000000602082015250565b6000613b1e6025836122c6565b9150613b2982613ac2565b604082019050919050565b60006020820190508181036000830152613b4d81613b11565b9050919050565b7f45524332303a207472616e7366657220746f20746865207a65726f206164647260008201527f6573730000000000000000000000000000000000000000000000000000000000602082015250565b6000613bb06023836122c6565b9150613bbb82613b54565b604082019050919050565b60006020820190508181036000830152613bdf81613ba3565b9050919050565b7f45524332303a207472616e7366657220616d6f756e742065786365656473206260008201527f616c616e63650000000000000000000000000000000000000000000000000000602082015250565b6000613c426026836122c6565b9150613c4d82613be6565b604082019050919050565b60006020820190508181036000830152613c7181613c35565b9050919050565b7f45524332303a206275726e2066726f6d20746865207a65726f2061646472657360008201527f7300000000000000000000000000000000000000000000000000000000000000602082015250565b6000613cd46021836122c6565b9150613cdf82613c78565b604082019050919050565b60006020820190508181036000830152613d0381613cc7565b9050919050565b7f45524332303a206275726e20616d6f756e7420657863656564732062616c616e60008201527f6365000000000000000000000000000000000000000000000000000000000000602082015250565b6000613d666022836122c6565b9150613d7182613d0a565b604082019050919050565b60006020820190508181036000830152613d9581613d59565b9050919050565b7f4f776e61626c653a2063616c6c6572206973206e6f7420746865206f776e6572600082015250565b6000613dd26020836122c6565b9150613ddd82613d9c565b602082019050919050565b60006020820190508181036000830152613e0181613dc5565b9050919050565b7f45524332303a206d696e7420746f20746865207a65726f206164647265737300600082015250565b6000613e3e601f836122c6565b9150613e4982613e08565b602082019050919050565b60006020820190508181036000830152613e6d81613e31565b905091905056fea264697066735822122071a8e737575a0c7d0c8ccfc8e01d7b6c506da5bbcbb5b0bd1fd1a497b6047a0764736f6c63430008130033",
  "linkReferences": {},
  "deployedLinkReferences": {}
}