{
  "_format": "hh-sol-artifact-1",
  "contractName": "BlueCarbonMRV",
  "sourceName": "contracts/BlueCarbonMRV.sol",
  "abi": [
    {
      "inputs": [],
      "stateMutability": "nonpayable",
      "type": "constructor"
    },
    {
      "anonymous": false,
      "inputs": [
        {
          "indexed": true,
          "internalType": "address",
          "name": "owner",
          "type": "address"
        },
        {
          "indexed": true,
          "internalType": "address",
          "name": "spender",
          "type": "address"
        },
        {
          "indexed": false,
          "internalType": "uint256",
          "name": "value",
          "type": "uint256"
        }
      ],
      "name": "Approval",
      "type": "event"
    },
    {
      "anonymous": false,
      "inputs": [
        {
          "indexed": false,
          "internalType": "string",
          "name": "recordId",
          "type": "string"
        },
        {
          "indexed": false,
          "internalType": "address",
          "name": "owner",
          "type": "address"
        },
        {
          "indexed": false,
          "internalType": "string",
          "name": "dataHash",
          "type": "string"
        },
        {
          "indexed": false,
          "internalType": "uint256",
          "name": "treeCount",
          "type": "uint256"
        }
      ],
      "name": "MRVAdded",
      "type": "event"
    },
    {
      "anonymous": false,
      "inputs": [
        {
          "indexed": false,
          "internalType": "string",
          "name": "recordId",
          "type": "string"
        },
        {
          "indexed": false,
          "internalType": "uint256",
          "name": "creditsIssued",
          "type": "uint256"
        }
      ],
      "name": "MRVVerified",
      "type": "event"
    },
    {
      "anonymous": false,
      "inputs": [
        {
          "indexed": true,
          "internalType": "address",
          "name": "previousOwner",
          "type": "address"
        },
        {
          "indexed": true,
          "internalType": "address",
          "name": "newOwner",
          "type": "address"
        }
      ],
      "name": "OwnershipTransferred",
      "type": "event"
    },
    {
      "anonymous": false,
      "inputs": [
        {
          "indexed": true,
          "internalType": "address",
          "name": "from",
          "type": "address"
        },
        {
          "indexed": true,
          "internalType": "address",
          "name": "to",
          "type": "address"
        },
        {
          "indexed": false,
          "internalType": "uint256",
          "name": "value",
          "type": "uint256"
        }
      ],
      "name": "Transfer",
      "type": "event"
    },
    {
      "inputs": [
        {
          "internalType": "string",
          "name": "_recordId",
          "type": "string"
        },
        {
          "internalType": "string",
          "name": "_dataHash",
          "type": "string"
        },
        {
          "internalType": "uint256",
          "name": "_treeCount",
          "type": "uint256"
        },
        {
          "internalType": "address",
          "name": "_owner",
          "type": "address"
        }
      ],
      "name": "addMRVRecord",
      "outputs": [],
      "stateMutability": "nonpayable",
      "type": "function"
    },
    {
      "inputs": [
        {
          "internalType": "address",
          "name": "owner",
          "type": "address"
        },
        {
          "internalType": "address",
          "name": "spender",
          "type": "address"
        }
      ],
      "name": "allowance",
      "outputs": [
        {
          "internalType": "uint256",
          "name": "",
          "type": "uint256"
        }
      ],
      "stateMutability": "view",
      "type": "function"
    },
    {
      "inputs": [
        {
          "internalType": "address",
          "name": "spender",
          "type": "address"
        },
        {
          "internalType": "uint256",
          "name": "amount",
          "type": "uint256"
        }
      ],
      "name": "approve",
      "outputs": [
        {
          "internalType": "bool",
          "name": "",
          "type": "bool"
        }
      ],
      "stateMutability": "nonpayable",
      "type": "function"
    },
    {
      "inputs": [
        {
          "internalType": "address",
          "name": "account",
          "type": "address"
        }
      ],
      "name": "balanceOf",
      "outputs": [
        {
          "internalType": "uint256",
          "name": "",
          "type": "uint256"
        }
      ],
      "stateMutability": "view",
      "type": "function"
    },
    {
      "inputs": [],
      "name": "decimals",
      "outputs": [
        {
          "internalType": "uint8",
          "name": "",
          "type": "uint8"
        }
      ],
      "stateMutability": "view",
      "type": "function"
    },
    {
      "inputs": [
        {
          "internalType": "address",
          "name": "spender",
          "type": "address"
        },
        {
          "internalType": "uint256",
          "name": "subtractedValue",
          "type": "uint256"
        }
      ],
      "name": "decreaseAllowance",
      "outputs": [
        {
          "internalType": "bool",
          "name": "",
          "type": "bool"
        }
      ],
      "stateMutability": "nonpayable",
      "type": "function"
    },
    {
      "inputs": [
        {
          "internalType": "string",
          "name": "_recordId",
          "type": "string"
        }
      ],
      "name": "getMRVRecord",
      "outputs": [
        {
          "internalType": "string",
          "name": "",
          "type": "string"
        },
        {
          "internalType": "string",
          "name": "",
          "type": "string"
        },
        {
          "internalType": "uint256",
          "name": "",
          "type": "uint256"
        },
        {
          "internalType": "uint256",
          "name": "",
          "type": "uint256"
        },
        {
          "internalType": "address",
          "name": "",
          "type": "address"
        },
        {
          "internalType": "bool",
          "name": "",
          "type": "bool"
        }
      ],
      "stateMutability": "view",
      "type": "function"
    },
    {
      "inputs": [
        {
          "internalType": "address",
          "name": "spender",
          "type": "address"
        },
        {
          "internalType": "uint256",
          "name": "addedValue",
          "type": "uint256"
        }
      ],
      "name": "increaseAllowance",
      "outputs": [
        {
          "internalType": "bool",
          "name": "",
          "type": "bool"
        }
      ],
      "stateMutability": "nonpayable",
      "type": "function"
    },
    {
      "inputs": [],
      "name": "name",
      "outputs": [
        {
          "internalType": "string",
          "name": "",
          "type": "string"
        }
      ],
      "stateMutability": "view",
      "type": "function"
    },
    {
      "inputs": [],
      "name": "owner",
      "outputs": [
        {
          "internalType": "address",
          "name": "",
          "type": "address"
        }
      ],
      "stateMutability": "view",
      "type": "function"
    },
    {
      "inputs": [
        {
          "internalType": "string",
          "name": "",
          "type": "string"
        }
      ],
      "name": "records",
      "outputs": [
        {
          "internalType": "string",
          "name": "recordId",
          "type": "string"
        },
        {
          "internalType": "string",
          "name": "dataHash",
          "type": "string"
        },
        {
          "internalType": "uint256",
          "name": "treeCount",
          "type": "uint256"
        },
        {
          "internalType": "uint256",
          "name": "credits",
          "type": "uint256"
        },
        {
          "internalType": "address",
          "name": "owner",
          "type": "address"
        },
        {
          "internalType": "bool",
          "name": "verified",
          "type": "bool"
        }
      ],
      "stateMutability": "view",
      "type": "function"
    },
    {
      "inputs": [],
      "name": "renounceOwnership",
      "outputs": [],
      "stateMutability": "nonpayable",
      "type": "function"
    },
    {
      "inputs": [],
      "name": "symbol",
      "outputs": [
        {
          "internalType": "string",
          "name": "",
          "type": "string"
        }
      ],
      "stateMutability": "view",
      "type": "function"
    },
    {
      "inputs": [],
      "name": "totalSupply",
      "outputs": [
        {
          "internalType": "uint256",
          "name": "",
          "type": "uint256"
        }
      ],
      "stateMutability": "view",
      "type": "function"
    },
    {
      "inputs": [
        {
          "internalType": "address",
          "name": "to",
          "type": "address"
        },
        {
          "internalType": "uint256",
          "name": "amount",
          "type": "uint256"
        }
      ],
      "name": "transfer",
      "outputs": [
        {
          "internalType": "bool",
          "name": "",
          "type": "bool"
        }
      ],
      "stateMutability": "nonpayable",
      "type": "function"
    },
    {
      "inputs": [
        {
          "internalType": "address",
          "name": "from",
          "type": "address"
        },
        {
          "internalType": "address",
          "name": "to",
          "type": "address"
        },
        {
          "internalType": "uint256",
          "name": "amount",
          "type": "uint256"
        }
      ],
      "name": "transferFrom",
      "outputs": [
        {
          "internalType": "bool",
          "name": "",
          "type": "bool"
        }
      ],
      "stateMutability": "nonpayable",
      "type": "function"
    },
    {
      "inputs": [
        {
          "internalType": "address",
          "name": "newOwner",
          "type": "address"
        }
      ],
      "name": "transferOwnership",
      "outputs": [],
      "stateMutability": "nonpayable",
      "type": "function"
    },
    {
      "inputs": [
        {
          "internalType": "string",
          "name": "_recordId",
          "type": "string"
        },
        {
          "internalType": "uint256",
          "name": "_tokensPerTree",
          "type": "uint256"
        }
      ],
      "name": "verifyMRV",
      "outputs": [],
      "stateMutability": "nonpayable",
      "type": "function"
    }
  ],
  "bytecode": "0x60806040523480156200001157600080fd5b506040518060400160405280601181526020017f426c7565436172626f6e204372656469740000000000000000000000000000008152506040518060400160405280600381526020017f424343000000000000000000000000000000000000000000000000000000000081525081600390816200008f919062000412565b508060049081620000a1919062000412565b505050620000c4620000b8620000ca60201b60201c565b620000d260201b60201c565b620004f9565b600033905090565b6000600560009054906101000a900473ffffffffffffffffffffffffffffffffffffffff16905081600560006101000a81548173ffffffffffffffffffffffffffffffffffffffff021916908373ffffffffffffffffffffffffffffffffffffffff1602179055508173ffffffffffffffffffffffffffffffffffffffff168173ffffffffffffffffffffffffffffffffffffffff167f8be0079c531659141344cd1fd0a4f28419497f9722a3daafe3b4186f6b6457e060405160405180910390a35050565b600081519050919050565b7f4e487b7100000000000000000000000000000000000000000000000000000000600052604160045260246000fd5b7f4e487b7100000000000000000000000000000000000000000000000000000000600052602260045260246000fd5b600060028204905060018216806200021a57607f821691505b60208210810362000230576200022f620001d2565b5b50919050565b60008190508160005260206000209050919050565b60006020601f8301049050919050565b600082821b905092915050565b6000600883026200029a7fffffffffffffffffffffffffffffffffffffffffffffffffffffffffffffffff826200025b565b620002a686836200025b565b95508019841693508086168417925050509392505050565b6000819050919050565b6000819050919050565b6000620002f3620002ed620002e784620002be565b620002c8565b620002be565b9050919050565b6000819050919050565b6200030f83620002d2565b620003276200031e82620002fa565b84845462000268565b825550505050565b600090565b6200033e6200032f565b6200034b81848462000304565b505050565b5b8181101562000373576200036760008262000334565b60018101905062000351565b5050565b601f821115620003c2576200038c8162000236565b62000397846200024b565b81016020851015620003a7578190505b620003bf620003b6856200024b565b83018262000350565b50505b505050565b600082821c905092915050565b6000620003e760001984600802620003c7565b1980831691505092915050565b6000620004028383620003d4565b9150826002028217905092915050565b6200041d8262000198565b67ffffffffffffffff811115620004395762000438620001a3565b5b62000445825462000201565b6200045282828562000377565b600060209050601f8311600181146200048a576000841562000475578287015190505b620004818582620003f4565b865550620004f1565b601f1984166200049a8662000236565b60005b82811015620004c4578489015182556001820191506020850194506020810190506200049d565b86831015620004e45784890151620004e0601f891682620003d4565b8355505b6001600288020188555050505b505050505050565b6128c080620005096000396000f3fe608060405234801561001057600080fd5b50600436106101165760003560e01c806377e1820a116100a2578063a457c2d711610071578063a457c2d714610301578063a9059cbb14610331578063b480664a14610361578063dd62ed3e1461037d578063f2fde38b146103ad57610116565b806377e1820a146102745780638b228d30146102a95780638da5cb5b146102c557806395d89b41146102e357610116565b8063313ce567116100e9578063313ce567146101b757806339509351146101d5578063541e771d1461020557806370a082311461023a578063715018a61461026a57610116565b806306fdde031461011b578063095ea7b31461013957806318160ddd1461016957806323b872dd14610187575b600080fd5b6101236103c9565b60405161013091906116ba565b60405180910390f35b610153600480360381019061014e9190611784565b61045b565b60405161016091906117df565b60405180910390f35b61017161047e565b60405161017e9190611809565b60405180910390f35b6101a1600480360381019061019c9190611824565b610488565b6040516101ae91906117df565b60405180910390f35b6101bf6104b7565b6040516101cc9190611893565b60405180910390f35b6101ef60048036038101906101ea9190611784565b6104c0565b6040516101fc91906117df565b60405180910390f35b61021f600480360381019061021a91906119e3565b6104f7565b60405161023196959493929190611a3b565b60405180910390f35b610254600480360381019061024f9190611aaa565b610686565b6040516102619190611809565b60405180910390f35b6102726106ce565b005b61028e600480360381019061028991906119e3565b6106e2565b6040516102a096959493929190611a3b565b60405180910390f35b6102c360048036038101906102be9190611ad7565b6108f5565b005b6102cd610abf565b6040516102da9190611b76565b60405180910390f35b6102eb610ae9565b6040516102f891906116ba565b60405180910390f35b61031b60048036038101906103169190611784565b610b7b565b60405161032891906117df565b60405180910390f35b61034b60048036038101906103469190611784565b610bf2565b60405161035891906117df565b60405180910390f35b61037b60048036038101906103769190611b91565b610c15565b005b61039760048036038101906103929190611bed565b610da9565b6040516103a49190611809565b60405180910390f35b6103c760048036038101906103c29190611aaa565b610e30565b005b6060600380546103d890611c5c565b80601f016020809104026020016040519081016040528092919081815260200182805461040490611c5c565b80156104515780601f1061042657610100808354040283529160200191610451565b820191906000526020600020905b81548152906001019060200180831161043457829003601f168201915b5050505050905090565b600080610466610eb3565b9050610473818585610ebb565b600191505092915050565b6000600254905090565b600080610493610eb3565b90506104a0858285611084565b6104ab858585611110565b60019150509392505050565b60006012905090565b6000806104cb610eb3565b90506104ec8185856104dd8589610da9565b6104e79190611cbc565b610ebb565b600191505092915050565b60068180516020810182018051848252602083016020850120818352809550505050505060009150905080600001805461053090611c5c565b80601f016020809104026020016040519081016040528092919081815260200182805461055c90611c5c565b80156105a95780601f1061057e576101008083540402835291602001916105a9565b820191906000526020600020905b81548152906001019060200180831161058c57829003601f168201915b5050505050908060010180546105be90611c5c565b80601f01602080910402602001604051908101604052809291908181526020018280546105ea90611c5c565b80156106375780601f1061060c57610100808354040283529160200191610637565b820191906000526020600020905b81548152906001019060200180831161061a57829003601f168201915b5050505050908060020154908060030154908060040160009054906101000a900473ffffffffffffffffffffffffffffffffffffffff16908060040160149054906101000a900460ff16905086565b60008060008373ffffffffffffffffffffffffffffffffffffffff1673ffffffffffffffffffffffffffffffffffffffff168152602001908152602001600020549050919050565b6106d6611386565b6106e06000611404565b565b60608060008060008060006006886040516106fd9190611d2c565b90815260200160405180910390206040518060c001604052908160008201805461072690611c5c565b80601f016020809104026020016040519081016040528092919081815260200182805461075290611c5c565b801561079f5780601f106107745761010080835404028352916020019161079f565b820191906000526020600020905b81548152906001019060200180831161078257829003601f168201915b505050505081526020016001820180546107b890611c5c565b80601f01602080910402602001604051908101604052809291908181526020018280546107e490611c5c565b80156108315780601f1061080657610100808354040283529160200191610831565b820191906000526020600020905b81548152906001019060200180831161081457829003601f168201915b5050505050815260200160028201548152602001600382015481526020016004820160009054906101000a900473ffffffffffffffffffffffffffffffffffffffff1673ffffffffffffffffffffffffffffffffffffffff1673ffffffffffffffffffffffffffffffffffffffff1681526020016004820160149054906101000a900460ff1615151515815250509050806000015181602001518260400151836060015184608001518560a001519650965096509650965096505091939550919395565b6108fd611386565b600060068560405161090f9190611d2c565b9081526020016040518091039020600001805461092b90611c5c565b90501461096d576040517f08c379a000000000000000000000000000000000000000000000000000000000815260040161096490611d8f565b60405180910390fd5b6040518060c00160405280858152602001848152602001838152602001600081526020018273ffffffffffffffffffffffffffffffffffffffff168152602001600015158152506006856040516109c49190611d2c565b908152602001604051809103902060008201518160000190816109e79190611f5b565b5060208201518160010190816109fd9190611f5b565b50604082015181600201556060820151816003015560808201518160040160006101000a81548173ffffffffffffffffffffffffffffffffffffffff021916908373ffffffffffffffffffffffffffffffffffffffff16021790555060a08201518160040160146101000a81548160ff0219169083151502179055509050507fafd63fe29ce4a3ddc94bc1440f49f6b0cc4b03106c863b534e127183d302554a84828585604051610ab1949392919061202d565b60405180910390a150505050565b6000600560009054906101000a900473ffffffffffffffffffffffffffffffffffffffff16905090565b606060048054610af890611c5c565b80601f0160208091040260200160405190810160405280929190818152602001828054610b2490611c5c565b8015610b715780601f10610b4657610100808354040283529160200191610b71565b820191906000526020600020905b815481529060010190602001808311610b5457829003601f168201915b5050505050905090565b600080610b86610eb3565b90506000610b948286610da9565b905083811015610bd9576040517f08c379a0000000000000000000000000000000000000000000000000000000008152600401610bd0906120f2565b60405180910390fd5b610be68286868403610ebb565b60019250505092915050565b600080610bfd610eb3565b9050610c0a818585611110565b600191505092915050565b610c1d611386565b6000600683604051610c2f9190611d2c565b908152602001604051809103902090506000816000018054610c5090611c5c565b905011610c92576040517f08c379a0000000000000000000000000000000000000000000000000000000008152600401610c899061215e565b60405180910390fd5b8060040160149054906101000a900460ff1615610ce4576040517f08c379a0000000000000000000000000000000000000000000000000000000008152600401610cdb906121ca565b60405180910390fd5b6000610cee6104b7565b600a610cfa919061231d565b838360020154610d0a9190612368565b610d149190612368565b905080826003018190555060018260040160146101000a81548160ff021916908315150217905550610d6a8260040160009054906101000a900473ffffffffffffffffffffffffffffffffffffffff16826114ca565b7f5e82b6171a94e9632195b04065b5c92a67845ac0d76ab158be53b4b7c8c980868482604051610d9b9291906123aa565b60405180910390a150505050565b6000600160008473ffffffffffffffffffffffffffffffffffffffff1673ffffffffffffffffffffffffffffffffffffffff16815260200190815260200160002060008373ffffffffffffffffffffffffffffffffffffffff1673ffffffffffffffffffffffffffffffffffffffff16815260200190815260200160002054905092915050565b610e38611386565b600073ffffffffffffffffffffffffffffffffffffffff168173ffffffffffffffffffffffffffffffffffffffff1603610ea7576040517f08c379a0000000000000000000000000000000000000000000000000000000008152600401610e9e9061244c565b60405180910390fd5b610eb081611404565b50565b600033905090565b600073ffffffffffffffffffffffffffffffffffffffff168373ffffffffffffffffffffffffffffffffffffffff1603610f2a576040517f08c379a0000000000000000000000000000000000000000000000000000000008152600401610f21906124de565b60405180910390fd5b600073ffffffffffffffffffffffffffffffffffffffff168273ffffffffffffffffffffffffffffffffffffffff1603610f99576040517f08c379a0000000000000000000000000000000000000000000000000000000008152600401610f9090612570565b60405180910390fd5b80600160008573ffffffffffffffffffffffffffffffffffffffff1673ffffffffffffffffffffffffffffffffffffffff16815260200190815260200160002060008473ffffffffffffffffffffffffffffffffffffffff1673ffffffffffffffffffffffffffffffffffffffff168152602001908152602001600020819055508173ffffffffffffffffffffffffffffffffffffffff168373ffffffffffffffffffffffffffffffffffffffff167f8c5be1e5ebec7d5bd14f71427d1e84f3dd0314c0f7b2291e5b200ac8c7c3b925836040516110779190611809565b60405180910390a3505050565b60006110908484610da9565b90507fffffffffffffffffffffffffffffffffffffffffffffffffffffffffffffffff811461110a57818110156110fc576040517f08c379a00000000000000000000000000000000000000000000000000000000081526004016110f3906125dc565b60405180910390fd5b6111098484848403610ebb565b5b50505050565b600073ffffffffffffffffffffffffffffffffffffffff168373ffffffffffffffffffffffffffffffffffffffff160361117f576040517f08c379a00000000000000000000000000000000000000000000000000000000081526004016111769061266e565b60405180910390fd5b600073ffffffffffffffffffffffffffffffffffffffff168273ffffffffffffffffffffffffffffffffffffffff16036111ee576040517f08c379a00000000000000000000000000000000000000000000000000000000081526004016111e590612700565b60405180910390fd5b6111f9838383611620565b60008060008573ffffffffffffffffffffffffffffffffffffffff1673ffffffffffffffffffffffffffffffffffffffff1681526020019081526020016000205490508181101561127f576040517f08c379a000000000000000000000000000000000000000000000000000000000815260040161127690612792565b60405180910390fd5b8181036000808673ffffffffffffffffffffffffffffffffffffffff1673ffffffffffffffffffffffffffffffffffffffff16815260200190815260200160002081905550816000808573ffffffffffffffffffffffffffffffffffffffff1673ffffffffffffffffffffffffffffffffffffffff168152602001908152602001600020600082825401925050819055508273ffffffffffffffffffffffffffffffffffffffff168473ffffffffffffffffffffffffffffffffffffffff167fddf252ad1be2c89b69c2b068fc378daa952ba7f163c4a11628f55a4df523b3ef8460405161136d9190611809565b60405180910390a3611380848484611625565b50505050565b61138e610eb3565b73ffffffffffffffffffffffffffffffffffffffff166113ac610abf565b73ffffffffffffffffffffffffffffffffffffffff1614611402576040517f08c379a00000000000000000000000000000000000000000000000000000000081526004016113f9906127fe565b60405180910390fd5b565b6000600560009054906101000a900473ffffffffffffffffffffffffffffffffffffffff16905081600560006101000a81548173ffffffffffffffffffffffffffffffffffffffff021916908373ffffffffffffffffffffffffffffffffffffffff1602179055508173ffffffffffffffffffffffffffffffffffffffff168173ffffffffffffffffffffffffffffffffffffffff167f8be0079c531659141344cd1fd0a4f28419497f9722a3daafe3b4186f6b6457e060405160405180910390a35050565b600073ffffffffffffffffffffffffffffffffffffffff168273ffffffffffffffffffffffffffffffffffffffff1603611539576040517f08c379a00000000000000000000000000000000000000000000000000000000081526004016115309061286a565b60405180910390fd5b61154560008383611620565b80600260008282546115579190611cbc565b92505081905550806000808473ffffffffffffffffffffffffffffffffffffffff1673ffffffffffffffffffffffffffffffffffffffff168152602001908152602001600020600082825401925050819055508173ffffffffffffffffffffffffffffffffffffffff16600073ffffffffffffffffffffffffffffffffffffffff167fddf252ad1be2c89b69c2b068fc378daa952ba7f163c4a11628f55a4df523b3ef836040516116089190611809565b60405180910390a361161c60008383611625565b5050565b505050565b505050565b600081519050919050565b600082825260208201905092915050565b60005b83811015611664578082015181840152602081019050611649565b60008484015250505050565b6000601f19601f8301169050919050565b600061168c8261162a565b6116968185611635565b93506116a6818560208601611646565b6116af81611670565b840191505092915050565b600060208201905081810360008301526116d48184611681565b905092915050565b6000604051905090565b600080fd5b600080fd5b600073ffffffffffffffffffffffffffffffffffffffff82169050919050565b600061171b826116f0565b9050919050565b61172b81611710565b811461173657600080fd5b50565b60008135905061174881611722565b92915050565b6000819050919050565b6117618161174e565b811461176c57600080fd5b50565b60008135905061177e81611758565b92915050565b6000806040838503121561179b5761179a6116e6565b5b60006117a985828601611739565b92505060206117ba8582860161176f565b9150509250929050565b60008115159050919050565b6117d9816117c4565b82525050565b60006020820190506117f460008301846117d0565b92915050565b6118038161174e565b82525050565b600060208201905061181e60008301846117fa565b92915050565b60008060006060848603121561183d5761183c6116e6565b5b600061184b86828701611739565b935050602061185c86828701611739565b925050604061186d8682870161176f565b9150509250925092565b600060ff82169050919050565b61188d81611877565b82525050565b60006020820190506118a86000830184611884565b92915050565b600080fd5b600080fd5b7f4e487b7100000000000000000000000000000000000000000000000000000000600052604160045260246000fd5b6118f082611670565b810181811067ffffffffffffffff8211171561190f5761190e6118b8565b5b80604052505050565b60006119226116dc565b905061192e82826118e7565b919050565b600067ffffffffffffffff82111561194e5761194d6118b8565b5b61195782611670565b9050602081019050919050565b82818337600083830152505050565b600061198661198184611933565b611918565b9050828152602081018484840111156119a2576119a16118b3565b5b6119ad848285611964565b509392505050565b600082601f8301126119ca576119c96118ae565b5b81356119da848260208601611973565b91505092915050565b6000602082840312156119f9576119f86116e6565b5b600082013567ffffffffffffffff811115611a1757611a166116eb565b5b611a23848285016119b5565b91505092915050565b611a3581611710565b82525050565b600060c0820190508181036000830152611a558189611681565b90508181036020830152611a698188611681565b9050611a7860408301876117fa565b611a8560608301866117fa565b611a926080830185611a2c565b611a9f60a08301846117d0565b979650505050505050565b600060208284031215611ac057611abf6116e6565b5b6000611ace84828501611739565b91505092915050565b60008060008060808587031215611af157611af06116e6565b5b600085013567ffffffffffffffff811115611b0f57611b0e6116eb565b5b611b1b878288016119b5565b945050602085013567ffffffffffffffff811115611b3c57611b3b6116eb565b5b611b48878288016119b5565b9350506040611b598782880161176f565b9250506060611b6a87828801611739565b91505092959194509250565b6000602082019050611b8b6000830184611a2c565b92915050565b60008060408385031215611ba857611ba76116e6565b5b600083013567ffffffffffffffff811115611bc657611bc56116eb565b5b611bd2858286016119b5565b9250506020611be38582860161176f565b9150509250929050565b60008060408385031215611c0457611c036116e6565b5b6000611c1285828601611739565b9250506020611c2385828601611739565b9150509250929050565b7f4e487b7100000000000000000000000000000000000000000000000000000000600052602260045260246000fd5b60006002820490506001821680611c7457607f821691505b602082108103611c8757611c86611c2d565b5b50919050565b7f4e487b7100000000000000000000000000000000000000000000000000000000600052601160045260246000fd5b6000611cc78261174e565b9150611cd28361174e565b9250828201905080821115611cea57611ce9611c8d565b5b92915050565b600081905092915050565b6000611d068261162a565b611d108185611cf0565b9350611d20818560208601611646565b80840191505092915050565b6000611d388284611cfb565b915081905092915050565b7f5265636f726420616c7265616479206578697374730000000000000000000000600082015250565b6000611d79601583611635565b9150611d8482611d43565b602082019050919050565b60006020820190508181036000830152611da881611d6c565b9050919050565b60008190508160005260206000209050919050565b60006020601f8301049050919050565b600082821b905092915050565b600060088302611e117fffffffffffffffffffffffffffffffffffffffffffffffffffffffffffffffff82611dd4565b611e1b8683611dd4565b95508019841693508086168417925050509392505050565b6000819050919050565b6000611e58611e53611e4e8461174e565b611e33565b61174e565b9050919050565b6000819050919050565b611e7283611e3d565b611e86611e7e82611e5f565b848454611de1565b825550505050565b600090565b611e9b611e8e565b611ea6818484611e69565b505050565b5b81811015611eca57611ebf600082611e93565b600181019050611eac565b5050565b601f821115611f0f57611ee081611daf565b611ee984611dc4565b81016020851015611ef8578190505b611f0c611f0485611dc4565b830182611eab565b50505b505050565b600082821c905092915050565b6000611f3260001984600802611f14565b1980831691505092915050565b6000611f4b8383611f21565b9150826002028217905092915050565b611f648261162a565b67ffffffffffffffff811115611f7d57611f7c6118b8565b5b611f878254611c5c565b611f92828285611ece565b600060209050601f831160018114611fc55760008415611fb3578287015190505b611fbd8582611f3f565b865550612025565b601f198416611fd386611daf565b60005b82811015611ffb57848901518255600182019150602085019450602081019050611fd6565b868310156120185784890151612014601f891682611f21565b8355505b6001600288020188555050505b505050505050565b600060808201905081810360008301526120478187611681565b90506120566020830186611a2c565b81810360408301526120688185611681565b905061207760608301846117fa565b95945050505050565b7f45524332303a2064656372656173656420616c6c6f77616e63652062656c6f7760008201527f207a65726f000000000000000000000000000000000000000000000000000000602082015250565b60006120dc602583611635565b91506120e782612080565b604082019050919050565b6000602082019050818103600083015261210b816120cf565b9050919050565b7f5265636f7264206e6f7420666f756e6400000000000000000000000000000000600082015250565b6000612148601083611635565b915061215382612112565b602082019050919050565b600060208201905081810360008301526121778161213b565b9050919050565b7f416c726561647920766572696669656400000000000000000000000000000000600082015250565b60006121b4601083611635565b91506121bf8261217e565b602082019050919050565b600060208201905081810360008301526121e3816121a7565b9050919050565b60008160011c9050919050565b6000808291508390505b60018511156122415780860481111561221d5761221c611c8d565b5b600185161561222c5780820291505b808102905061223a856121ea565b9450612201565b94509492505050565b60008261225a5760019050612316565b816122685760009050612316565b816001811461227e5760028114612288576122b7565b6001915050612316565b60ff84111561229a57612299611c8d565b5b8360020a9150848211156122b1576122b0611c8d565b5b50612316565b5060208310610133831016604e8410600b84101617156122ec5782820a9050838111156122e7576122e6611c8d565b5b612316565b6122f984848460016121f7565b925090508184048111156123105761230f611c8d565b5b81810290505b9392505050565b60006123288261174e565b915061233383611877565b92506123607fffffffffffffffffffffffffffffffffffffffffffffffffffffffffffffffff848461224a565b905092915050565b60006123738261174e565b915061237e8361174e565b925082820261238c8161174e565b915082820484148315176123a3576123a2611c8d565b5b5092915050565b600060408201905081810360008301526123c48185611681565b90506123d360208301846117fa565b9392505050565b7f4f776e61626c653a206e6577206f776e657220697320746865207a65726f206160008201527f6464726573730000000000000000000000000000000000000000000000000000602082015250565b6000612436602683611635565b9150612441826123da565b604082019050919050565b6000602082019050818103600083015261246581612429565b9050919050565b7f45524332303a20617070726f76652066726f6d20746865207a65726f2061646460008201527f7265737300000000000000000000000000000000000000000000000000000000602082015250565b60006124c8602483611635565b91506124d38261246c565b604082019050919050565b600060208201905081810360008301526124f7816124bb565b9050919050565b7f45524332303a20617070726f766520746f20746865207a65726f20616464726560008201527f7373000000000000000000000000000000000000000000000000000000000000602082015250565b600061255a602283611635565b9150612565826124fe565b604082019050919050565b600060208201905081810360008301526125898161254d565b9050919050565b7f45524332303a20696e73756666696369656e7420616c6c6f77616e6365000000600082015250565b60006125c6601d83611635565b91506125d182612590565b602082019050919050565b600060208201905081810360008301526125f5816125b9565b9050919050565b7f45524332303a207472616e736665722066726f6d20746865207a65726f20616460008201527f6472657373000000000000000000000000000000000000000000000000000000602082015250565b6000612658602583611635565b9150612663826125fc565b604082019050919050565b600060208201905081810360008301526126878161264b565b9050919050565b7f45524332303a207472616e7366657220746f20746865207a65726f206164647260008201527f6573730000000000000000000000000000000000000000000000000000000000602082015250565b60006126ea602383611635565b91506126f58261268e565b604082019050919050565b60006020820190508181036000830152612719816126dd565b9050919050565b7f45524332303a207472616e7366657220616d6f756e742065786365656473206260008201527f616c616e63650000000000000000000000000000000000000000000000000000602082015250565b600061277c602683611635565b915061278782612720565b604082019050919050565b600060208201905081810360008301526127ab8161276f565b9050919050565b7f4f776e61626c653a2063616c6c6572206973206e6f7420746865206f776e6572600082015250565b60006127e8602083611635565b91506127f3826127b2565b602082019050919050565b60006020820190508181036000830152612817816127db565b9050919050565b7f45524332303a206d696e7420746f20746865207a65726f206164647265737300600082015250565b6000612854601f83611635565b915061285f8261281e565b602082019050919050565b6000602082019050818103600083015261288381612847565b905091905056fea2646970667358221220d5e199c9df67e4c6a96de167089aac913d8c29effb79b1e867f2dfab9aae2d7364736f6c63430008130033",
  "linkReferences": {},
  "deployedLinkReferences": {}
}