{
  "_format": "hh-sol-artifact-1",
  "contractName": "CarbonToken",
  "sourceName": "contracts/CarbonToken.sol",
  "abi": [
    {
      "inputs": [
        {
          "internalType": "string",
          "name": "name_",
          "type": "string"
        },
        {
          "internalType": "string",
          "name": "symbol_",
          "type": "string"
        }
      ],
      "stateMutability": "nonpayable",
      "type": "constructor"
    },
    {
      "anonymous": false,
      "inputs": [
        {
          "indexed": true,
          "internalType": "address",
          "name": "owner",
          "type": "address"
        },
        {
          "indexed": true,
          "internalType": "address",
          "name": "spender",
          "type": "address"
        },
        {
          "indexed": false,
          "internalType": "uint256",
          "name": "value",
          "type": "uint256"
        }
      ],
      "name": "Approval",
      "type": "event"
    },
    {
      "anonymous": false,
      "inputs": [
        {
          "indexed": false,
          "internalType": "string",
          "name": "reportId",
          "type": "string"
        },
        {
          "indexed": false,
          "internalType": "address",
          "name": "reporter",
          "type": "address"
        },
        {
          "indexed": false,
          "internalType": "string",
          "name": "projectId",
          "type": "string"
        },
        {
          "indexed": false,
          "internalType": "string",
          "name": "droneDataHash",
          "type": "string"
        }
      ],
      "name": "MRVSubmitted",
      "type": "event"
    },
    {
      "anonymous": false,
      "inputs": [
        {
          "indexed": false,
          "internalType": "string",
          "name": "reportId",
          "type": "string"
        },
        {
          "indexed": false,
          "internalType": "uint256",
          "name": "credits",
          "type": "uint256"
        }
      ],
      "name": "MRVVerified",
      "type": "event"
    },
    {
      "anonymous": false,
      "inputs": [
        {
          "indexed": true,
          "internalType": "bytes32",
          "name": "role",
          "type": "bytes32"
        },
        {
          "indexed": true,
          "internalType": "bytes32",
          "name": "previousAdminRole",
          "type": "bytes32"
        },
        {
          "indexed": true,
          "internalType": "bytes32",
          "name": "newAdminRole",
          "type": "bytes32"
        }
      ],
      "name": "RoleAdminChanged",
      "type": "event"
    },
    {
      "anonymous": false,
      "inputs": [
        {
          "indexed": true,
          "internalType": "bytes32",
          "name": "role",
          "type": "bytes32"
        },
        {
          "indexed": true,
          "internalType": "address",
          "name": "account",
          "type": "address"
        },
        {
          "indexed": true,
          "internalType": "address",
          "name": "sender",
          "type": "address"
        }
      ],
      "name": "RoleGranted",
      "type": "event"
    },
    {
      "anonymous": false,
      "inputs": [
        {
          "indexed": true,
          "internalType": "bytes32",
          "name": "role",
          "type": "bytes32"
        },
        {
          "indexed": true,
          "internalType": "address",
          "name": "account",
          "type": "address"
        },
        {
          "indexed": true,
          "internalType": "address",
          "name": "sender",
          "type": "address"
        }
      ],
      "name": "RoleRevoked",
      "type": "event"
    },
    {
      "anonymous": false,
      "inputs": [
        {
          "indexed": true,
          "internalType": "address",
          "name": "from",
          "type": "address"
        },
        {
          "indexed": true,
          "internalType": "address",
          "name": "to",
          "type": "address"
        },
        {
          "indexed": false,
          "internalType": "uint256",
          "name": "value",
          "type": "uint256"
        }
      ],
      "name": "Transfer",
      "type": "event"
    },
    {
      "inputs": [],
      "name": "DEFAULT_ADMIN_ROLE",
      "outputs": [
        {
          "internalType": "bytes32",
          "name": "",
          "type": "bytes32"
        }
      ],
      "stateMutability": "view",
      "type": "function"
    },
    {
      "inputs": [],
      "name": "MINTER_ROLE",
      "outputs": [
        {
          "internalType": "bytes32",
          "name": "",
          "type": "bytes32"
        }
      ],
      "stateMutability": "view",
      "type": "function"
    },
    {
      "inputs": [],
      "name": "VERIFIER_ROLE",
      "outputs": [
        {
          "internalType": "bytes32",
          "name": "",
          "type": "bytes32"
        }
      ],
      "stateMutability": "view",
      "type": "function"
    },
    {
      "inputs": [
        {
          "internalType": "address",
          "name": "owner",
          "type": "address"
        },
        {
          "internalType": "address",
          "name": "spender",
          "type": "address"
        }
      ],
      "name": "allowance",
      "outputs": [
        {
          "internalType": "uint256",
          "name": "",
          "type": "uint256"
        }
      ],
      "stateMutability": "view",
      "type": "function"
    },
    {
      "inputs": [
        {
          "internalType": "address",
          "name": "spender",
          "type": "address"
        },
        {
          "internalType": "uint256",
          "name": "amount",
          "type": "uint256"
        }
      ],
      "name": "approve",
      "outputs": [
        {
          "internalType": "bool",
          "name": "",
          "type": "bool"
        }
      ],
      "stateMutability": "nonpayable",
      "type": "function"
    },
    {
      "inputs": [
        {
          "internalType": "address",
          "name": "account",
          "type": "address"
        }
      ],
      "name": "balanceOf",
      "outputs": [
        {
          "internalType": "uint256",
          "name": "",
          "type": "uint256"
        }
      ],
      "stateMutability": "view",
      "type": "function"
    },
    {
      "inputs": [],
      "name": "decimals",
      "outputs": [
        {
          "internalType": "uint8",
          "name": "",
          "type": "uint8"
        }
      ],
      "stateMutability": "view",
      "type": "function"
    },
    {
      "inputs": [
        {
          "internalType": "address",
          "name": "spender",
          "type": "address"
        },
        {
          "internalType": "uint256",
          "name": "subtractedValue",
          "type": "uint256"
        }
      ],
      "name": "decreaseAllowance",
      "outputs": [
        {
          "internalType": "bool",
          "name": "",
          "type": "bool"
        }
      ],
      "stateMutability": "nonpayable",
      "type": "function"
    },
    {
      "inputs": [
        {
          "internalType": "bytes32",
          "name": "role",
          "type": "bytes32"
        }
      ],
      "name": "getRoleAdmin",
      "outputs": [
        {
          "internalType": "bytes32",
          "name": "",
          "type": "bytes32"
        }
      ],
      "stateMutability": "view",
      "type": "function"
    },
    {
      "inputs": [
        {
          "internalType": "address",
          "name": "account",
          "type": "address"
        }
      ],
      "name": "grantMinter",
      "outputs": [],
      "stateMutability": "nonpayable",
      "type": "function"
    },
    {
      "inputs": [
        {
          "internalType": "bytes32",
          "name": "role",
          "type": "bytes32"
        },
        {
          "internalType": "address",
          "name": "account",
          "type": "address"
        }
      ],
      "name": "grantRole",
      "outputs": [],
      "stateMutability": "nonpayable",
      "type": "function"
    },
    {
      "inputs": [
        {
          "internalType": "address",
          "name": "account",
          "type": "address"
        }
      ],
      "name": "grantVerifier",
      "outputs": [],
      "stateMutability": "nonpayable",
      "type": "function"
    },
    {
      "inputs": [
        {
          "internalType": "bytes32",
          "name": "role",
          "type": "bytes32"
        },
        {
          "internalType": "address",
          "name": "account",
          "type": "address"
        }
      ],
      "name": "hasRole",
      "outputs": [
        {
          "internalType": "bool",
          "name": "",
          "type": "bool"
        }
      ],
      "stateMutability": "view",
      "type": "function"
    },
    {
      "inputs": [
        {
          "internalType": "address",
          "name": "spender",
          "type": "address"
        },
        {
          "internalType": "uint256",
          "name": "addedValue",
          "type": "uint256"
        }
      ],
      "name": "increaseAllowance",
      "outputs": [
        {
          "internalType": "bool",
          "name": "",
          "type": "bool"
        }
      ],
      "stateMutability": "nonpayable",
      "type": "function"
    },
    {
      "inputs": [],
      "name": "name",
      "outputs": [
        {
          "internalType": "string",
          "name": "",
          "type": "string"
        }
      ],
      "stateMutability": "view",
      "type": "function"
    },
    {
      "inputs": [
        {
          "internalType": "bytes32",
          "name": "role",
          "type": "bytes32"
        },
        {
          "internalType": "address",
          "name": "account",
          "type": "address"
        }
      ],
      "name": "renounceRole",
      "outputs": [],
      "stateMutability": "nonpayable",
      "type": "function"
    },
    {
      "inputs": [
        {
          "internalType": "string",
          "name": "",
          "type": "string"
        }
      ],
      "name": "reports",
      "outputs": [
        {
          "internalType": "string",
          "name": "reportId",
          "type": "string"
        },
        {
          "internalType": "address",
          "name": "reporter",
          "type": "address"
        },
        {
          "internalType": "string",
          "name": "projectId",
          "type": "string"
        },
        {
          "internalType": "string",
          "name": "droneDataHash",
          "type": "string"
        },
        {
          "internalType": "bool",
          "name": "verified",
          "type": "bool"
        },
        {
          "internalType": "uint256",
          "name": "creditsIssued",
          "type": "uint256"
        }
      ],
      "stateMutability": "view",
      "type": "function"
    },
    {
      "inputs": [
        {
          "internalType": "bytes32",
          "name": "role",
          "type": "bytes32"
        },
        {
          "internalType": "address",
          "name": "account",
          "type": "address"
        }
      ],
      "name": "revokeRole",
      "outputs": [],
      "stateMutability": "nonpayable",
      "type": "function"
    },
    {
      "inputs": [
        {
          "internalType": "string",
          "name": "reportId",
          "type": "string"
        },
        {
          "internalType": "string",
          "name": "projectId",
          "type": "string"
        },
        {
          "internalType": "string",
          "name": "droneDataHash",
          "type": "string"
        }
      ],
      "name": "submitMRV",
      "outputs": [],
      "stateMutability": "nonpayable",
      "type": "function"
    },
    {
      "inputs": [
        {
          "internalType": "bytes4",
          "name": "interfaceId",
          "type": "bytes4"
        }
      ],
      "name": "supportsInterface",
      "outputs": [
        {
          "internalType": "bool",
          "name": "",
          "type": "bool"
        }
      ],
      "stateMutability": "view",
      "type": "function"
    },
    {
      "inputs": [],
      "name": "symbol",
      "outputs": [
        {
          "internalType": "string",
          "name": "",
          "type": "string"
        }
      ],
      "stateMutability": "view",
      "type": "function"
    },
    {
      "inputs": [],
      "name": "totalSupply",
      "outputs": [
        {
          "internalType": "uint256",
          "name": "",
          "type": "uint256"
        }
      ],
      "stateMutability": "view",
      "type": "function"
    },
    {
      "inputs": [
        {
          "internalType": "address",
          "name": "to",
          "type": "address"
        },
        {
          "internalType": "uint256",
          "name": "amount",
          "type": "uint256"
        }
      ],
      "name": "transfer",
      "outputs": [
        {
          "internalType": "bool",
          "name": "",
          "type": "bool"
        }
      ],
      "stateMutability": "nonpayable",
      "type": "function"
    },
    {
      "inputs": [
        {
          "internalType": "address",
          "name": "from",
          "type": "address"
        },
        {
          "internalType": "address",
          "name": "to",
          "type": "address"
        },
        {
          "internalType": "uint256",
          "name": "amount",
          "type": "uint256"
        }
      ],
      "name": "transferFrom",
      "outputs": [
        {
          "internalType": "bool",
          "name": "",
          "type": "bool"
        }
      ],
      "stateMutability": "nonpayable",
      "type": "function"
    },
    {
      "inputs": [
        {
          "internalType": "string",
          "name": "reportId",
          "type": "string"
        },
        {
          "internalType": "uint256",
          "name": "credits",
          "type": "uint256"
        }
      ],
      "name": "verifyAndMint",
      "outputs": [],
      "stateMutability": "nonpayable",
      "type": "function"
    }
  ],
  "bytecode": "0x60806040523480156200001157600080fd5b5060405162003614380380620036148339818101604052810190620000379190620003d8565b818181600390816200004a9190620006a8565b5080600490816200005c9190620006a8565b505050620000746000801b33620000e060201b60201c565b620000a67f9f2df0fed2c77648de5860a4cc508cd0818c85b8b8a1ab4ceeef8d981c8956a633620000e060201b60201c565b620000d87f0ce23c3e399818cfee81a7ab0880f714e53d7672b08df0fa62f2843416e1ea0933620000e060201b60201c565b50506200078f565b620000f28282620001d260201b60201c565b620001ce5760016005600084815260200190815260200160002060000160008373ffffffffffffffffffffffffffffffffffffffff1673ffffffffffffffffffffffffffffffffffffffff16815260200190815260200160002060006101000a81548160ff021916908315150217905550620001736200023d60201b60201c565b73ffffffffffffffffffffffffffffffffffffffff168173ffffffffffffffffffffffffffffffffffffffff16837f2f8788117e7eff1d82e926ec794901d17c78024a50270940304540a733656f0d60405160405180910390a45b5050565b60006005600084815260200190815260200160002060000160008373ffffffffffffffffffffffffffffffffffffffff1673ffffffffffffffffffffffffffffffffffffffff16815260200190815260200160002060009054906101000a900460ff16905092915050565b600033905090565b6000604051905090565b600080fd5b600080fd5b600080fd5b600080fd5b6000601f19601f8301169050919050565b7f4e487b7100000000000000000000000000000000000000000000000000000000600052604160045260246000fd5b620002ae8262000263565b810181811067ffffffffffffffff82111715620002d057620002cf62000274565b5b80604052505050565b6000620002e562000245565b9050620002f38282620002a3565b919050565b600067ffffffffffffffff82111562000316576200031562000274565b5b620003218262000263565b9050602081019050919050565b60005b838110156200034e57808201518184015260208101905062000331565b60008484015250505050565b6000620003716200036b84620002f8565b620002d9565b90508281526020810184848401111562000390576200038f6200025e565b5b6200039d8482856200032e565b509392505050565b600082601f830112620003bd57620003bc62000259565b5b8151620003cf8482602086016200035a565b91505092915050565b60008060408385031215620003f257620003f16200024f565b5b600083015167ffffffffffffffff81111562000413576200041262000254565b5b6200042185828601620003a5565b925050602083015167ffffffffffffffff81111562000445576200044462000254565b5b6200045385828601620003a5565b9150509250929050565b600081519050919050565b7f4e487b7100000000000000000000000000000000000000000000000000000000600052602260045260246000fd5b60006002820490506001821680620004b057607f821691505b602082108103620004c657620004c562000468565b5b50919050565b60008190508160005260206000209050919050565b60006020601f8301049050919050565b600082821b905092915050565b600060088302620005307fffffffffffffffffffffffffffffffffffffffffffffffffffffffffffffffff82620004f1565b6200053c8683620004f1565b95508019841693508086168417925050509392505050565b6000819050919050565b6000819050919050565b600062000589620005836200057d8462000554565b6200055e565b62000554565b9050919050565b6000819050919050565b620005a58362000568565b620005bd620005b48262000590565b848454620004fe565b825550505050565b600090565b620005d4620005c5565b620005e18184846200059a565b505050565b5b818110156200060957620005fd600082620005ca565b600181019050620005e7565b5050565b601f82111562000658576200062281620004cc565b6200062d84620004e1565b810160208510156200063d578190505b620006556200064c85620004e1565b830182620005e6565b50505b505050565b600082821c905092915050565b60006200067d600019846008026200065d565b1980831691505092915050565b60006200069883836200066a565b9150826002028217905092915050565b620006b3826200045d565b67ffffffffffffffff811115620006cf57620006ce62000274565b5b620006db825462000497565b620006e88282856200060d565b600060209050601f8311600181146200072057600084156200070b578287015190505b6200071785826200068a565b86555062000787565b601f1984166200073086620004cc565b60005b828110156200075a5784890151825560018201915060208501945060208101905062000733565b868310156200077a578489015162000776601f8916826200066a565b8355505b6001600288020188555050505b505050505050565b612e75806200079f6000396000f3fe608060405234801561001057600080fd5b50600436106101735760003560e01c806370a08231116100de578063a457c2d711610097578063d539139311610071578063d53913931461049b578063d547741f146104b9578063dd62ed3e146104d5578063e7705db61461050557610173565b8063a457c2d71461041f578063a8781b671461044f578063a9059cbb1461046b57610173565b806370a082311461034b578063749b26d51461037b57806391d148541461039757806395d89b41146103c7578063a04f4da0146103e5578063a217fddf1461040157610173565b8063261707fa11610130578063261707fa146102745780632f2ff15d14610290578063313ce567146102ac57806336568abe146102ca57806339509351146102e657806364cceaef1461031657610173565b806301ffc9a71461017857806306fdde03146101a8578063095ea7b3146101c657806318160ddd146101f657806323b872dd14610214578063248a9ca314610244575b600080fd5b610192600480360381019061018d9190611bbe565b610523565b60405161019f9190611c06565b60405180910390f35b6101b061059d565b6040516101bd9190611cb1565b60405180910390f35b6101e060048036038101906101db9190611d67565b61062f565b6040516101ed9190611c06565b60405180910390f35b6101fe610652565b60405161020b9190611db6565b60405180910390f35b61022e60048036038101906102299190611dd1565b61065c565b60405161023b9190611c06565b60405180910390f35b61025e60048036038101906102599190611e5a565b61068b565b60405161026b9190611e96565b60405180910390f35b61028e60048036038101906102899190611eb1565b6106ab565b005b6102aa60048036038101906102a59190611ede565b6106e6565b005b6102b4610707565b6040516102c19190611f3a565b60405180910390f35b6102e460048036038101906102df9190611ede565b610710565b005b61030060048036038101906102fb9190611d67565b610793565b60405161030d9190611c06565b60405180910390f35b610330600480360381019061032b919061208a565b6107ca565b604051610342969594939291906120e2565b60405180910390f35b61036560048036038101906103609190611eb1565b6109e1565b6040516103729190611db6565b60405180910390f35b61039560048036038101906103909190611eb1565b610a29565b005b6103b160048036038101906103ac9190611ede565b610a64565b6040516103be9190611c06565b60405180910390f35b6103cf610acf565b6040516103dc9190611cb1565b60405180910390f35b6103ff60048036038101906103fa9190612158565b610b61565b005b610409610d2e565b6040516104169190611e96565b60405180910390f35b61043960048036038101906104349190611d67565b610d35565b6040516104469190611c06565b60405180910390f35b610469600480360381019061046491906121ff565b610dac565b005b61048560048036038101906104809190611d67565b610edd565b6040516104929190611c06565b60405180910390f35b6104a3610f00565b6040516104b09190611e96565b60405180910390f35b6104d360048036038101906104ce9190611ede565b610f24565b005b6104ef60048036038101906104ea919061225b565b610f45565b6040516104fc9190611db6565b60405180910390f35b61050d610fcc565b60405161051a9190611e96565b60405180910390f35b60007f7965db0b000000000000000000000000000000000000000000000000000000007bffffffffffffffffffffffffffffffffffffffffffffffffffffffff1916827bffffffffffffffffffffffffffffffffffffffffffffffffffffffff19161480610596575061059582610ff0565b5b9050919050565b6060600380546105ac906122ca565b80601f01602080910402602001604051908101604052809291908181526020018280546105d8906122ca565b80156106255780601f106105fa57610100808354040283529160200191610625565b820191906000526020600020905b81548152906001019060200180831161060857829003601f168201915b5050505050905090565b60008061063a61105a565b9050610647818585611062565b600191505092915050565b6000600254905090565b60008061066761105a565b905061067485828561122b565b61067f8585856112b7565b60019150509392505050565b600060056000838152602001908152602001600020600101549050919050565b6000801b6106b88161152d565b6106e27f9f2df0fed2c77648de5860a4cc508cd0818c85b8b8a1ab4ceeef8d981c8956a683611541565b5050565b6106ef8261068b565b6106f88161152d565b6107028383611541565b505050565b60006012905090565b61071861105a565b73ffffffffffffffffffffffffffffffffffffffff168173ffffffffffffffffffffffffffffffffffffffff1614610785576040517f08c379a000000000000000000000000000000000000000000000000000000000815260040161077c9061236d565b60405180910390fd5b61078f8282611622565b5050565b60008061079e61105a565b90506107bf8185856107b08589610f45565b6107ba91906123bc565b611062565b600191505092915050565b600681805160208101820180518482526020830160208501208183528095505050505050600091509050806000018054610803906122ca565b80601f016020809104026020016040519081016040528092919081815260200182805461082f906122ca565b801561087c5780601f106108515761010080835404028352916020019161087c565b820191906000526020600020905b81548152906001019060200180831161085f57829003601f168201915b5050505050908060010160009054906101000a900473ffffffffffffffffffffffffffffffffffffffff16908060020180546108b7906122ca565b80601f01602080910402602001604051908101604052809291908181526020018280546108e3906122ca565b80156109305780601f1061090557610100808354040283529160200191610930565b820191906000526020600020905b81548152906001019060200180831161091357829003601f168201915b505050505090806003018054610945906122ca565b80601f0160208091040260200160405190810160405280929190818152602001828054610971906122ca565b80156109be5780601f10610993576101008083540402835291602001916109be565b820191906000526020600020905b8154815290600101906020018083116109a157829003601f168201915b5050505050908060040160009054906101000a900460ff16908060050154905086565b60008060008373ffffffffffffffffffffffffffffffffffffffff1673ffffffffffffffffffffffffffffffffffffffff168152602001908152602001600020549050919050565b6000801b610a368161152d565b610a607f0ce23c3e399818cfee81a7ab0880f714e53d7672b08df0fa62f2843416e1ea0983611541565b5050565b60006005600084815260200190815260200160002060000160008373ffffffffffffffffffffffffffffffffffffffff1673ffffffffffffffffffffffffffffffffffffffff16815260200190815260200160002060009054906101000a900460ff16905092915050565b606060048054610ade906122ca565b80601f0160208091040260200160405190810160405280929190818152602001828054610b0a906122ca565b8015610b575780601f10610b2c57610100808354040283529160200191610b57565b820191906000526020600020905b815481529060010190602001808311610b3a57829003601f168201915b5050505050905090565b6000600684604051610b73919061242c565b90815260200160405180910390206000018054610b8f906122ca565b905014610bd1576040517f08c379a0000000000000000000000000000000000000000000000000000000008152600401610bc89061248f565b60405180910390fd5b6040518060c001604052808481526020013373ffffffffffffffffffffffffffffffffffffffff1681526020018381526020018281526020016000151581526020016000815250600684604051610c28919061242c565b90815260200160405180910390206000820151816000019081610c4b919061265b565b5060208201518160010160006101000a81548173ffffffffffffffffffffffffffffffffffffffff021916908373ffffffffffffffffffffffffffffffffffffffff1602179055506040820151816002019081610ca8919061265b565b506060820151816003019081610cbe919061265b565b5060808201518160040160006101000a81548160ff02191690831515021790555060a082015181600501559050507fcf259bc6323e5449d029554dc45972578af93dc089203910b2c3153178aa45fa83338484604051610d21949392919061272d565b60405180910390a1505050565b6000801b81565b600080610d4061105a565b90506000610d4e8286610f45565b905083811015610d93576040517f08c379a0000000000000000000000000000000000000000000000000000000008152600401610d8a906127f9565b60405180910390fd5b610da08286868403611062565b60019250505092915050565b7f0ce23c3e399818cfee81a7ab0880f714e53d7672b08df0fa62f2843416e1ea09610dd68161152d565b6000600684604051610de8919061242c565b908152602001604051809103902090508060040160009054906101000a900460ff1615610e4a576040517f08c379a0000000000000000000000000000000000000000000000000000000008152600401610e4190612865565b60405180910390fd5b60018160040160006101000a81548160ff021916908315150217905550828160050181905550610e9e8160010160009054906101000a900473ffffffffffffffffffffffffffffffffffffffff1684611704565b7f5e82b6171a94e9632195b04065b5c92a67845ac0d76ab158be53b4b7c8c980868484604051610ecf929190612885565b60405180910390a150505050565b600080610ee861105a565b9050610ef58185856112b7565b600191505092915050565b7f9f2df0fed2c77648de5860a4cc508cd0818c85b8b8a1ab4ceeef8d981c8956a681565b610f2d8261068b565b610f368161152d565b610f408383611622565b505050565b6000600160008473ffffffffffffffffffffffffffffffffffffffff1673ffffffffffffffffffffffffffffffffffffffff16815260200190815260200160002060008373ffffffffffffffffffffffffffffffffffffffff1673ffffffffffffffffffffffffffffffffffffffff16815260200190815260200160002054905092915050565b7f0ce23c3e399818cfee81a7ab0880f714e53d7672b08df0fa62f2843416e1ea0981565b60007f01ffc9a7000000000000000000000000000000000000000000000000000000007bffffffffffffffffffffffffffffffffffffffffffffffffffffffff1916827bffffffffffffffffffffffffffffffffffffffffffffffffffffffff1916149050919050565b600033905090565b600073ffffffffffffffffffffffffffffffffffffffff168373ffffffffffffffffffffffffffffffffffffffff16036110d1576040517f08c379a00000000000000000000000000000000000000000000000000000000081526004016110c890612927565b60405180910390fd5b600073ffffffffffffffffffffffffffffffffffffffff168273ffffffffffffffffffffffffffffffffffffffff1603611140576040517f08c379a0000000000000000000000000000000000000000000000000000000008152600401611137906129b9565b60405180910390fd5b80600160008573ffffffffffffffffffffffffffffffffffffffff1673ffffffffffffffffffffffffffffffffffffffff16815260200190815260200160002060008473ffffffffffffffffffffffffffffffffffffffff1673ffffffffffffffffffffffffffffffffffffffff168152602001908152602001600020819055508173ffffffffffffffffffffffffffffffffffffffff168373ffffffffffffffffffffffffffffffffffffffff167f8c5be1e5ebec7d5bd14f71427d1e84f3dd0314c0f7b2291e5b200ac8c7c3b9258360405161121e9190611db6565b60405180910390a3505050565b60006112378484610f45565b90507fffffffffffffffffffffffffffffffffffffffffffffffffffffffffffffffff81146112b157818110156112a3576040517f08c379a000000000000000000000000000000000000000000000000000000000815260040161129a90612a25565b60405180910390fd5b6112b08484848403611062565b5b50505050565b600073ffffffffffffffffffffffffffffffffffffffff168373ffffffffffffffffffffffffffffffffffffffff1603611326576040517f08c379a000000000000000000000000000000000000000000000000000000000815260040161131d90612ab7565b60405180910390fd5b600073ffffffffffffffffffffffffffffffffffffffff168273ffffffffffffffffffffffffffffffffffffffff1603611395576040517f08c379a000000000000000000000000000000000000000000000000000000000815260040161138c90612b49565b60405180910390fd5b6113a083838361185a565b60008060008573ffffffffffffffffffffffffffffffffffffffff1673ffffffffffffffffffffffffffffffffffffffff16815260200190815260200160002054905081811015611426576040517f08c379a000000000000000000000000000000000000000000000000000000000815260040161141d90612bdb565b60405180910390fd5b8181036000808673ffffffffffffffffffffffffffffffffffffffff1673ffffffffffffffffffffffffffffffffffffffff16815260200190815260200160002081905550816000808573ffffffffffffffffffffffffffffffffffffffff1673ffffffffffffffffffffffffffffffffffffffff168152602001908152602001600020600082825401925050819055508273ffffffffffffffffffffffffffffffffffffffff168473ffffffffffffffffffffffffffffffffffffffff167fddf252ad1be2c89b69c2b068fc378daa952ba7f163c4a11628f55a4df523b3ef846040516115149190611db6565b60405180910390a361152784848461185f565b50505050565b61153e8161153961105a565b611864565b50565b61154b8282610a64565b61161e5760016005600084815260200190815260200160002060000160008373ffffffffffffffffffffffffffffffffffffffff1673ffffffffffffffffffffffffffffffffffffffff16815260200190815260200160002060006101000a81548160ff0219169083151502179055506115c361105a565b73ffffffffffffffffffffffffffffffffffffffff168173ffffffffffffffffffffffffffffffffffffffff16837f2f8788117e7eff1d82e926ec794901d17c78024a50270940304540a733656f0d60405160405180910390a45b5050565b61162c8282610a64565b156117005760006005600084815260200190815260200160002060000160008373ffffffffffffffffffffffffffffffffffffffff1673ffffffffffffffffffffffffffffffffffffffff16815260200190815260200160002060006101000a81548160ff0219169083151502179055506116a561105a565b73ffffffffffffffffffffffffffffffffffffffff168173ffffffffffffffffffffffffffffffffffffffff16837ff6391f5c32d9c69d2a47ea670b442974b53935d1edc7fd64eb21e047a839171b60405160405180910390a45b5050565b600073ffffffffffffffffffffffffffffffffffffffff168273ffffffffffffffffffffffffffffffffffffffff1603611773576040517f08c379a000000000000000000000000000000000000000000000000000000000815260040161176a90612c47565b60405180910390fd5b61177f6000838361185a565b806002600082825461179191906123bc565b92505081905550806000808473ffffffffffffffffffffffffffffffffffffffff1673ffffffffffffffffffffffffffffffffffffffff168152602001908152602001600020600082825401925050819055508173ffffffffffffffffffffffffffffffffffffffff16600073ffffffffffffffffffffffffffffffffffffffff167fddf252ad1be2c89b69c2b068fc378daa952ba7f163c4a11628f55a4df523b3ef836040516118429190611db6565b60405180910390a36118566000838361185f565b5050565b505050565b505050565b61186e8282610a64565b6118e55761187b816118e9565b6118898360001c6020611916565b60405160200161189a929190612cff565b6040516020818303038152906040526040517f08c379a00000000000000000000000000000000000000000000000000000000081526004016118dc9190611cb1565b60405180910390fd5b5050565b606061190f8273ffffffffffffffffffffffffffffffffffffffff16601460ff16611916565b9050919050565b6060600060028360026119299190612d39565b61193391906123bc565b67ffffffffffffffff81111561194c5761194b611f5f565b5b6040519080825280601f01601f19166020018201604052801561197e5781602001600182028036833780820191505090505b5090507f3000000000000000000000000000000000000000000000000000000000000000816000815181106119b6576119b5612d7b565b5b60200101907effffffffffffffffffffffffffffffffffffffffffffffffffffffffffffff1916908160001a9053507f780000000000000000000000000000000000000000000000000000000000000081600181518110611a1a57611a19612d7b565b5b60200101907effffffffffffffffffffffffffffffffffffffffffffffffffffffffffffff1916908160001a90535060006001846002611a5a9190612d39565b611a6491906123bc565b90505b6001811115611b04577f3031323334353637383961626364656600000000000000000000000000000000600f861660108110611aa657611aa5612d7b565b5b1a60f81b828281518110611abd57611abc612d7b565b5b60200101907effffffffffffffffffffffffffffffffffffffffffffffffffffffffffffff1916908160001a905350600485901c945080611afd90612daa565b9050611a67565b5060008414611b48576040517f08c379a0000000000000000000000000000000000000000000000000000000008152600401611b3f90612e1f565b60405180910390fd5b8091505092915050565b6000604051905090565b600080fd5b600080fd5b60007fffffffff0000000000000000000000000000000000000000000000000000000082169050919050565b611b9b81611b66565b8114611ba657600080fd5b50565b600081359050611bb881611b92565b92915050565b600060208284031215611bd457611bd3611b5c565b5b6000611be284828501611ba9565b91505092915050565b60008115159050919050565b611c0081611beb565b82525050565b6000602082019050611c1b6000830184611bf7565b92915050565b600081519050919050565b600082825260208201905092915050565b60005b83811015611c5b578082015181840152602081019050611c40565b60008484015250505050565b6000601f19601f8301169050919050565b6000611c8382611c21565b611c8d8185611c2c565b9350611c9d818560208601611c3d565b611ca681611c67565b840191505092915050565b60006020820190508181036000830152611ccb8184611c78565b905092915050565b600073ffffffffffffffffffffffffffffffffffffffff82169050919050565b6000611cfe82611cd3565b9050919050565b611d0e81611cf3565b8114611d1957600080fd5b50565b600081359050611d2b81611d05565b92915050565b6000819050919050565b611d4481611d31565b8114611d4f57600080fd5b50565b600081359050611d6181611d3b565b92915050565b60008060408385031215611d7e57611d7d611b5c565b5b6000611d8c85828601611d1c565b9250506020611d9d85828601611d52565b9150509250929050565b611db081611d31565b82525050565b6000602082019050611dcb6000830184611da7565b92915050565b600080600060608486031215611dea57611de9611b5c565b5b6000611df886828701611d1c565b9350506020611e0986828701611d1c565b9250506040611e1a86828701611d52565b9150509250925092565b6000819050919050565b611e3781611e24565b8114611e4257600080fd5b50565b600081359050611e5481611e2e565b92915050565b600060208284031215611e7057611e6f611b5c565b5b6000611e7e84828501611e45565b91505092915050565b611e9081611e24565b82525050565b6000602082019050611eab6000830184611e87565b92915050565b600060208284031215611ec757611ec6611b5c565b5b6000611ed584828501611d1c565b91505092915050565b60008060408385031215611ef557611ef4611b5c565b5b6000611f0385828601611e45565b9250506020611f1485828601611d1c565b9150509250929050565b600060ff82169050919050565b611f3481611f1e565b82525050565b6000602082019050611f4f6000830184611f2b565b92915050565b600080fd5b600080fd5b7f4e487b7100000000000000000000000000000000000000000000000000000000600052604160045260246000fd5b611f9782611c67565b810181811067ffffffffffffffff82111715611fb657611fb5611f5f565b5b80604052505050565b6000611fc9611b52565b9050611fd58282611f8e565b919050565b600067ffffffffffffffff821115611ff557611ff4611f5f565b5b611ffe82611c67565b9050602081019050919050565b82818337600083830152505050565b600061202d61202884611fda565b611fbf565b90508281526020810184848401111561204957612048611f5a565b5b61205484828561200b565b509392505050565b600082601f83011261207157612070611f55565b5b813561208184826020860161201a565b91505092915050565b6000602082840312156120a05761209f611b5c565b5b600082013567ffffffffffffffff8111156120be576120bd611b61565b5b6120ca8482850161205c565b91505092915050565b6120dc81611cf3565b82525050565b600060c08201905081810360008301526120fc8189611c78565b905061210b60208301886120d3565b818103604083015261211d8187611c78565b905081810360608301526121318186611c78565b90506121406080830185611bf7565b61214d60a0830184611da7565b979650505050505050565b60008060006060848603121561217157612170611b5c565b5b600084013567ffffffffffffffff81111561218f5761218e611b61565b5b61219b8682870161205c565b935050602084013567ffffffffffffffff8111156121bc576121bb611b61565b5b6121c88682870161205c565b925050604084013567ffffffffffffffff8111156121e9576121e8611b61565b5b6121f58682870161205c565b9150509250925092565b6000806040838503121561221657612215611b5c565b5b600083013567ffffffffffffffff81111561223457612233611b61565b5b6122408582860161205c565b925050602061225185828601611d52565b9150509250929050565b6000806040838503121561227257612271611b5c565b5b600061228085828601611d1c565b925050602061229185828601611d1c565b9150509250929050565b7f4e487b7100000000000000000000000000000000000000000000000000000000600052602260045260246000fd5b600060028204905060018216806122e257607f821691505b6020821081036122f5576122f461229b565b5b50919050565b7f416363657373436f6e74726f6c3a2063616e206f6e6c792072656e6f756e636560008201527f20726f6c657320666f722073656c660000000000000000000000000000000000602082015250565b6000612357602f83611c2c565b9150612362826122fb565b604082019050919050565b600060208201905081810360008301526123868161234a565b9050919050565b7f4e487b7100000000000000000000000000000000000000000000000000000000600052601160045260246000fd5b60006123c782611d31565b91506123d283611d31565b92508282019050808211156123ea576123e961238d565b5b92915050565b600081905092915050565b600061240682611c21565b61241081856123f0565b9350612420818560208601611c3d565b80840191505092915050565b600061243882846123fb565b915081905092915050565b7f5265706f727420616c7265616479206578697374730000000000000000000000600082015250565b6000612479601583611c2c565b915061248482612443565b602082019050919050565b600060208201905081810360008301526124a88161246c565b9050919050565b60008190508160005260206000209050919050565b60006020601f8301049050919050565b600082821b905092915050565b6000600883026125117fffffffffffffffffffffffffffffffffffffffffffffffffffffffffffffffff826124d4565b61251b86836124d4565b95508019841693508086168417925050509392505050565b6000819050919050565b600061255861255361254e84611d31565b612533565b611d31565b9050919050565b6000819050919050565b6125728361253d565b61258661257e8261255f565b8484546124e1565b825550505050565b600090565b61259b61258e565b6125a6818484612569565b505050565b5b818110156125ca576125bf600082612593565b6001810190506125ac565b5050565b601f82111561260f576125e0816124af565b6125e9846124c4565b810160208510156125f8578190505b61260c612604856124c4565b8301826125ab565b50505b505050565b600082821c905092915050565b600061263260001984600802612614565b1980831691505092915050565b600061264b8383612621565b9150826002028217905092915050565b61266482611c21565b67ffffffffffffffff81111561267d5761267c611f5f565b5b61268782546122ca565b6126928282856125ce565b600060209050601f8311600181146126c557600084156126b3578287015190505b6126bd858261263f565b865550612725565b601f1984166126d3866124af565b60005b828110156126fb578489015182556001820191506020850194506020810190506126d6565b868310156127185784890151612714601f891682612621565b8355505b6001600288020188555050505b505050505050565b600060808201905081810360008301526127478187611c78565b905061275660208301866120d3565b81810360408301526127688185611c78565b9050818103606083015261277c8184611c78565b905095945050505050565b7f45524332303a2064656372656173656420616c6c6f77616e63652062656c6f7760008201527f207a65726f000000000000000000000000000000000000000000000000000000602082015250565b60006127e3602583611c2c565b91506127ee82612787565b604082019050919050565b60006020820190508181036000830152612812816127d6565b9050919050565b7f5265706f727420616c7265616479207665726966696564000000000000000000600082015250565b600061284f601783611c2c565b915061285a82612819565b602082019050919050565b6000602082019050818103600083015261287e81612842565b9050919050565b6000604082019050818103600083015261289f8185611c78565b90506128ae6020830184611da7565b9392505050565b7f45524332303a20617070726f76652066726f6d20746865207a65726f2061646460008201527f7265737300000000000000000000000000000000000000000000000000000000602082015250565b6000612911602483611c2c565b915061291c826128b5565b604082019050919050565b6000602082019050818103600083015261294081612904565b9050919050565b7f45524332303a20617070726f766520746f20746865207a65726f20616464726560008201527f7373000000000000000000000000000000000000000000000000000000000000602082015250565b60006129a3602283611c2c565b91506129ae82612947565b604082019050919050565b600060208201905081810360008301526129d281612996565b9050919050565b7f45524332303a20696e73756666696369656e7420616c6c6f77616e6365000000600082015250565b6000612a0f601d83611c2c565b9150612a1a826129d9565b602082019050919050565b60006020820190508181036000830152612a3e81612a02565b9050919050565b7f45524332303a207472616e736665722066726f6d20746865207a65726f20616460008201527f6472657373000000000000000000000000000000000000000000000000000000602082015250565b6000612aa1602583611c2c565b9150612aac82612a45565b604082019050919050565b60006020820190508181036000830152612ad081612a94565b9050919050565b7f45524332303a207472616e7366657220746f20746865207a65726f206164647260008201527f6573730000000000000000000000000000000000000000000000000000000000602082015250565b6000612b33602383611c2c565b9150612b3e82612ad7565b604082019050919050565b60006020820190508181036000830152612b6281612b26565b9050919050565b7f45524332303a207472616e7366657220616d6f756e742065786365656473206260008201527f616c616e63650000000000000000000000000000000000000000000000000000602082015250565b6000612bc5602683611c2c565b9150612bd082612b69565b604082019050919050565b60006020820190508181036000830152612bf481612bb8565b9050919050565b7f45524332303a206d696e7420746f20746865207a65726f206164647265737300600082015250565b6000612c31601f83611c2c565b9150612c3c82612bfb565b602082019050919050565b60006020820190508181036000830152612c6081612c24565b9050919050565b7f416363657373436f6e74726f6c3a206163636f756e7420000000000000000000600082015250565b6000612c9d6017836123f0565b9150612ca882612c67565b601782019050919050565b7f206973206d697373696e6720726f6c6520000000000000000000000000000000600082015250565b6000612ce96011836123f0565b9150612cf482612cb3565b601182019050919050565b6000612d0a82612c90565b9150612d1682856123fb565b9150612d2182612cdc565b9150612d2d82846123fb565b91508190509392505050565b6000612d4482611d31565b9150612d4f83611d31565b9250828202612d5d81611d31565b91508282048414831517612d7457612d7361238d565b5b5092915050565b7f4e487b7100000000000000000000000000000000000000000000000000000000600052603260045260246000fd5b6000612db582611d31565b915060008203612dc857612dc761238d565b5b600182039050919050565b7f537472696e67733a20686578206c656e67746820696e73756666696369656e74600082015250565b6000612e09602083611c2c565b9150612e1482612dd3565b602082019050919050565b60006020820190508181036000830152612e3881612dfc565b905091905056fea26469706673582212200e16d99af833b4e52115af8a101c5dabd90e3b4377c4ed535836d2bf1720379164736f6c63430008130033",
  "linkReferences": {},
  "deployedLinkReferences": {}
}