{
  "_format": "hh-sol-artifact-1",
  "contractName": "ReportCertificate",
  "sourceName": "contracts/ReportCertificate.sol",
  "abi": [
    {
      "inputs": [
        {
          "internalType": "string",
          "name": "name_",
          "type": "string"
        },
        {
          "internalType": "string",
          "name": "symbol_",
          "type": "string"
        }
      ],
      "stateMutability": "nonpayable",
      "type": "constructor"
    },
    {
      "anonymous": false,
      "inputs": [
        {
          "indexed": true,
          "internalType": "address",
          "name": "owner",
          "type": "address"
        },
        {
          "indexed": true,
          "internalType": "address",
          "name": "approved",
          "type": "address"
        },
        {
          "indexed": true,
          "internalType": "uint256",
          "name": "tokenId",
          "type": "uint256"
        }
      ],
      "name": "Approval",
      "type": "event"
    },
    {
      "anonymous": false,
      "inputs": [
        {
          "indexed": true,
          "internalType": "address",
          "name": "owner",
          "type": "address"
        },
        {
          "indexed": true,
          "internalType": "address",
          "name": "operator",
          "type": "address"
        },
        {
          "indexed": false,
          "internalType": "bool",
          "name": "approved",
          "type": "bool"
        }
      ],
      "name": "ApprovalForAll",
      "type": "event"
    },
    {
      "anonymous": false,
      "inputs": [
        {
          "indexed": false,
          "internalType": "uint256",
          "name": "_fromTokenId",
          "type": "uint256"
        },
        {
          "indexed": false,
          "internalType": "uint256",
          "name": "_toTokenId",
          "type": "uint256"
        }
      ],
      "name": "BatchMetadataUpdate",
      "type": "event"
    },
    {
      "anonymous": false,
      "inputs": [
        {
          "indexed": false,
          "internalType": "uint256",
          "name": "_tokenId",
          "type": "uint256"
        }
      ],
      "name": "MetadataUpdate",
      "type": "event"
    },
    {
      "anonymous": false,
      "inputs": [
        {
          "indexed": true,
          "internalType": "bytes32",
          "name": "role",
          "type": "bytes32"
        },
        {
          "indexed": true,
          "internalType": "bytes32",
          "name": "previousAdminRole",
          "type": "bytes32"
        },
        {
          "indexed": true,
          "internalType": "bytes32",
          "name": "newAdminRole",
          "type": "bytes32"
        }
      ],
      "name": "RoleAdminChanged",
      "type": "event"
    },
    {
      "anonymous": false,
      "inputs": [
        {
          "indexed": true,
          "internalType": "bytes32",
          "name": "role",
          "type": "bytes32"
        },
        {
          "indexed": true,
          "internalType": "address",
          "name": "account",
          "type": "address"
        },
        {
          "indexed": true,
          "internalType": "address",
          "name": "sender",
          "type": "address"
        }
      ],
      "name": "RoleGranted",
      "type": "event"
    },
    {
      "anonymous": false,
      "inputs": [
        {
          "indexed": true,
          "internalType": "bytes32",
          "name": "role",
          "type": "bytes32"
        },
        {
          "indexed": true,
          "internalType": "address",
          "name": "account",
          "type": "address"
        },
        {
          "indexed": true,
          "internalType": "address",
          "name": "sender",
          "type": "address"
        }
      ],
      "name": "RoleRevoked",
      "type": "event"
    },
    {
      "anonymous": false,
      "inputs": [
        {
          "indexed": true,
          "internalType": "address",
          "name": "from",
          "type": "address"
        },
        {
          "indexed": true,
          "internalType": "address",
          "name": "to",
          "type": "address"
        },
        {
          "indexed": true,
          "internalType": "uint256",
          "name": "tokenId",
          "type": "uint256"
        }
      ],
      "name": "Transfer",
      "type": "event"
    },
    {
      "inputs": [],
      "name": "DEFAULT_ADMIN_ROLE",
      "outputs": [
        {
          "internalType": "bytes32",
          "name": "",
          "type": "bytes32"
        }
      ],
      "stateMutability": "view",
      "type": "function"
    },
    {
      "inputs": [],
      "name": "ISSUER_ROLE",
      "outputs": [
        {
          "internalType": "bytes32",
          "name": "",
          "type": "bytes32"
        }
      ],
      "stateMutability": "view",
      "type": "function"
    },
    {
      "inputs": [
        {
          "internalType": "address",
          "name": "to",
          "type": "address"
        },
        {
          "internalType": "uint256",
          "name": "tokenId",
          "type": "uint256"
        }
      ],
      "name": "approve",
      "outputs": [],
      "stateMutability": "nonpayable",
      "type": "function"
    },
    {
      "inputs": [
        {
          "internalType": "address",
          "name": "owner",
          "type": "address"
        }
      ],
      "name": "balanceOf",
      "outputs": [
        {
          "internalType": "uint256",
          "name": "",
          "type": "uint256"
        }
      ],
      "stateMutability": "view",
      "type": "function"
    },
    {
      "inputs": [
        {
          "internalType": "uint256",
          "name": "tokenId",
          "type": "uint256"
        }
      ],
      "name": "getApproved",
      "outputs": [
        {
          "internalType": "address",
          "name": "",
          "type": "address"
        }
      ],
      "stateMutability": "view",
      "type": "function"
    },
    {
      "inputs": [
        {
          "internalType": "bytes32",
          "name": "role",
          "type": "bytes32"
        }
      ],
      "name": "getRoleAdmin",
      "outputs": [
        {
          "internalType": "bytes32",
          "name": "",
          "type": "bytes32"
        }
      ],
      "stateMutability": "view",
      "type": "function"
    },
    {
      "inputs": [
        {
          "internalType": "bytes32",
          "name": "role",
          "type": "bytes32"
        },
        {
          "internalType": "address",
          "name": "account",
          "type": "address"
        }
      ],
      "name": "grantRole",
      "outputs": [],
      "stateMutability": "nonpayable",
      "type": "function"
    },
    {
      "inputs": [
        {
          "internalType": "bytes32",
          "name": "role",
          "type": "bytes32"
        },
        {
          "internalType": "address",
          "name": "account",
          "type": "address"
        }
      ],
      "name": "hasRole",
      "outputs": [
        {
          "internalType": "bool",
          "name": "",
          "type": "bool"
        }
      ],
      "stateMutability": "view",
      "type": "function"
    },
    {
      "inputs": [
        {
          "internalType": "address",
          "name": "owner",
          "type": "address"
        },
        {
          "internalType": "address",
          "name": "operator",
          "type": "address"
        }
      ],
      "name": "isApprovedForAll",
      "outputs": [
        {
          "internalType": "bool",
          "name": "",
          "type": "bool"
        }
      ],
      "stateMutability": "view",
      "type": "function"
    },
    {
      "inputs": [
        {
          "internalType": "address",
          "name": "to",
          "type": "address"
        },
        {
          "internalType": "string",
          "name": "tokenURI",
          "type": "string"
        }
      ],
      "name": "issueCertificate",
      "outputs": [
        {
          "internalType": "uint256",
          "name": "",
          "type": "uint256"
        }
      ],
      "stateMutability": "nonpayable",
      "type": "function"
    },
    {
      "inputs": [],
      "name": "name",
      "outputs": [
        {
          "internalType": "string",
          "name": "",
          "type": "string"
        }
      ],
      "stateMutability": "view",
      "type": "function"
    },
    {
      "inputs": [
        {
          "internalType": "uint256",
          "name": "tokenId",
          "type": "uint256"
        }
      ],
      "name": "ownerOf",
      "outputs": [
        {
          "internalType": "address",
          "name": "",
          "type": "address"
        }
      ],
      "stateMutability": "view",
      "type": "function"
    },
    {
      "inputs": [
        {
          "internalType": "bytes32",
          "name": "role",
          "type": "bytes32"
        },
        {
          "internalType": "address",
          "name": "account",
          "type": "address"
        }
      ],
      "name": "renounceRole",
      "outputs": [],
      "stateMutability": "nonpayable",
      "type": "function"
    },
    {
      "inputs": [
        {
          "internalType": "bytes32",
          "name": "role",
          "type": "bytes32"
        },
        {
          "internalType": "address",
          "name": "account",
          "type": "address"
        }
      ],
      "name": "revokeRole",
      "outputs": [],
      "stateMutability": "nonpayable",
      "type": "function"
    },
    {
      "inputs": [
        {
          "internalType": "address",
          "name": "from",
          "type": "address"
        },
        {
          "internalType": "address",
          "name": "to",
          "type": "address"
        },
        {
          "internalType": "uint256",
          "name": "tokenId",
          "type": "uint256"
        }
      ],
      "name": "safeTransferFrom",
      "outputs": [],
      "stateMutability": "nonpayable",
      "type": "function"
    },
    {
      "inputs": [
        {
          "internalType": "address",
          "name": "from",
          "type": "address"
        },
        {
          "internalType": "address",
          "name": "to",
          "type": "address"
        },
        {
          "internalType": "uint256",
          "name": "tokenId",
          "type": "uint256"
        },
        {
          "internalType": "bytes",
          "name": "data",
          "type": "bytes"
        }
      ],
      "name": "safeTransferFrom",
      "outputs": [],
      "stateMutability": "nonpayable",
      "type": "function"
    },
    {
      "inputs": [
        {
          "internalType": "address",
          "name": "operator",
          "type": "address"
        },
        {
          "internalType": "bool",
          "name": "approved",
          "type": "bool"
        }
      ],
      "name": "setApprovalForAll",
      "outputs": [],
      "stateMutability": "nonpayable",
      "type": "function"
    },
    {
      "inputs": [
        {
          "internalType": "bytes4",
          "name": "interfaceId",
          "type": "bytes4"
        }
      ],
      "name": "supportsInterface",
      "outputs": [
        {
          "internalType": "bool",
          "name": "",
          "type": "bool"
        }
      ],
      "stateMutability": "view",
      "type": "function"
    },
    {
      "inputs": [],
      "name": "symbol",
      "outputs": [
        {
          "internalType": "string",
          "name": "",
          "type": "string"
        }
      ],
      "stateMutability": "view",
      "type": "function"
    },
    {
      "inputs": [
        {
          "internalType": "uint256",
          "name": "tokenId",
          "type": "uint256"
        }
      ],
      "name": "tokenURI",
      "outputs": [
        {
          "internalType": "string",
          "name": "",
          "type": "string"
        }
      ],
      "stateMutability": "view",
      "type": "function"
    },
    {
      "inputs": [
        {
          "internalType": "address",
          "name": "from",
          "type": "address"
        },
        {
          "internalType": "address",
          "name": "to",
          "type": "address"
        },
        {
          "internalType": "uint256",
          "name": "tokenId",
          "type": "uint256"
        }
      ],
      "name": "transferFrom",
      "outputs": [],
      "stateMutability": "nonpayable",
      "type": "function"
    }
  ],
  "bytecode": "0x60806040523480156200001157600080fd5b5060405162003e1b38038062003e1b8339818101604052810190620000379190620003a6565b818181600090816200004a919062000676565b5080600190816200005c919062000676565b505050620000746000801b33620000ae60201b60201c565b620000a67f114e74f6ea3bd819998f78687bfcb11b140da08e9b7d222fa9c1f1ba1f2aa12233620000ae60201b60201c565b50506200075d565b620000c08282620001a060201b60201c565b6200019c5760016007600084815260200190815260200160002060000160008373ffffffffffffffffffffffffffffffffffffffff1673ffffffffffffffffffffffffffffffffffffffff16815260200190815260200160002060006101000a81548160ff021916908315150217905550620001416200020b60201b60201c565b73ffffffffffffffffffffffffffffffffffffffff168173ffffffffffffffffffffffffffffffffffffffff16837f2f8788117e7eff1d82e926ec794901d17c78024a50270940304540a733656f0d60405160405180910390a45b5050565b60006007600084815260200190815260200160002060000160008373ffffffffffffffffffffffffffffffffffffffff1673ffffffffffffffffffffffffffffffffffffffff16815260200190815260200160002060009054906101000a900460ff16905092915050565b600033905090565b6000604051905090565b600080fd5b600080fd5b600080fd5b600080fd5b6000601f19601f8301169050919050565b7f4e487b7100000000000000000000000000000000000000000000000000000000600052604160045260246000fd5b6200027c8262000231565b810181811067ffffffffffffffff821117156200029e576200029d62000242565b5b80604052505050565b6000620002b362000213565b9050620002c1828262000271565b919050565b600067ffffffffffffffff821115620002e457620002e362000242565b5b620002ef8262000231565b9050602081019050919050565b60005b838110156200031c578082015181840152602081019050620002ff565b60008484015250505050565b60006200033f6200033984620002c6565b620002a7565b9050828152602081018484840111156200035e576200035d6200022c565b5b6200036b848285620002fc565b509392505050565b600082601f8301126200038b576200038a62000227565b5b81516200039d84826020860162000328565b91505092915050565b60008060408385031215620003c057620003bf6200021d565b5b600083015167ffffffffffffffff811115620003e157620003e062000222565b5b620003ef8582860162000373565b925050602083015167ffffffffffffffff81111562000413576200041262000222565b5b620004218582860162000373565b9150509250929050565b600081519050919050565b7f4e487b7100000000000000000000000000000000000000000000000000000000600052602260045260246000fd5b600060028204905060018216806200047e57607f821691505b60208210810362000494576200049362000436565b5b50919050565b60008190508160005260206000209050919050565b60006020601f8301049050919050565b600082821b905092915050565b600060088302620004fe7fffffffffffffffffffffffffffffffffffffffffffffffffffffffffffffffff82620004bf565b6200050a8683620004bf565b95508019841693508086168417925050509392505050565b6000819050919050565b6000819050919050565b600062000557620005516200054b8462000522565b6200052c565b62000522565b9050919050565b6000819050919050565b620005738362000536565b6200058b62000582826200055e565b848454620004cc565b825550505050565b600090565b620005a262000593565b620005af81848462000568565b505050565b5b81811015620005d757620005cb60008262000598565b600181019050620005b5565b5050565b601f8211156200062657620005f0816200049a565b620005fb84620004af565b810160208510156200060b578190505b620006236200061a85620004af565b830182620005b4565b50505b505050565b600082821c905092915050565b60006200064b600019846008026200062b565b1980831691505092915050565b600062000666838362000638565b9150826002028217905092915050565b62000681826200042b565b67ffffffffffffffff8111156200069d576200069c62000242565b5b620006a9825462000465565b620006b6828285620005db565b600060209050601f831160018114620006ee5760008415620006d9578287015190505b620006e5858262000658565b86555062000755565b601f198416620006fe866200049a565b60005b82811015620007285784890151825560018201915060208501945060208101905062000701565b8683101562000748578489015162000744601f89168262000638565b8355505b6001600288020188555050505b505050505050565b6136ae806200076d6000396000f3fe608060405234801561001057600080fd5b50600436106101375760003560e01c806370a08231116100b8578063a22cb4651161007c578063a22cb46514610360578063b88d4fde1461037c578063bb721aab14610398578063c87b56dd146103c8578063d547741f146103f8578063e985e9c51461041457610137565b806370a08231146102a657806382aefa24146102d657806391d14854146102f457806395d89b4114610324578063a217fddf1461034257610137565b8063248a9ca3116100ff578063248a9ca3146101f25780632f2ff15d1461022257806336568abe1461023e57806342842e0e1461025a5780636352211e1461027657610137565b806301ffc9a71461013c57806306fdde031461016c578063081812fc1461018a578063095ea7b3146101ba57806323b872dd146101d6575b600080fd5b61015660048036038101906101519190612203565b610444565b604051610163919061224b565b60405180910390f35b610174610456565b60405161018191906122f6565b60405180910390f35b6101a4600480360381019061019f919061234e565b6104e8565b6040516101b191906123bc565b60405180910390f35b6101d460048036038101906101cf9190612403565b61052e565b005b6101f060048036038101906101eb9190612443565b610645565b005b61020c600480360381019061020791906124cc565b6106a5565b6040516102199190612508565b60405180910390f35b61023c60048036038101906102379190612523565b6106c5565b005b61025860048036038101906102539190612523565b6106e6565b005b610274600480360381019061026f9190612443565b610769565b005b610290600480360381019061028b919061234e565b610789565b60405161029d91906123bc565b60405180910390f35b6102c060048036038101906102bb9190612563565b61080f565b6040516102cd919061259f565b60405180910390f35b6102de6108c6565b6040516102eb9190612508565b60405180910390f35b61030e60048036038101906103099190612523565b6108ea565b60405161031b919061224b565b60405180910390f35b61032c610955565b60405161033991906122f6565b60405180910390f35b61034a6109e7565b6040516103579190612508565b60405180910390f35b61037a600480360381019061037591906125e6565b6109ee565b005b6103966004803603810190610391919061275b565b610a04565b005b6103b260048036038101906103ad919061287f565b610a66565b6040516103bf919061259f565b60405180910390f35b6103e260048036038101906103dd919061234e565b610ac9565b6040516103ef91906122f6565b60405180910390f35b610412600480360381019061040d9190612523565b610bdb565b005b61042e600480360381019061042991906128db565b610bfc565b60405161043b919061224b565b60405180910390f35b600061044f82610c90565b9050919050565b6060600080546104659061294a565b80601f01602080910402602001604051908101604052809291908181526020018280546104919061294a565b80156104de5780601f106104b3576101008083540402835291602001916104de565b820191906000526020600020905b8154815290600101906020018083116104c157829003601f168201915b5050505050905090565b60006104f382610d0a565b6004600083815260200190815260200160002060009054906101000a900473ffffffffffffffffffffffffffffffffffffffff169050919050565b600061053982610789565b90508073ffffffffffffffffffffffffffffffffffffffff168373ffffffffffffffffffffffffffffffffffffffff16036105a9576040517f08c379a00000000000000000000000000000000000000000000000000000000081526004016105a0906129ed565b60405180910390fd5b8073ffffffffffffffffffffffffffffffffffffffff166105c8610d55565b73ffffffffffffffffffffffffffffffffffffffff1614806105f757506105f6816105f1610d55565b610bfc565b5b610636576040517f08c379a000000000000000000000000000000000000000000000000000000000815260040161062d90612a7f565b60405180910390fd5b6106408383610d5d565b505050565b610656610650610d55565b82610e16565b610695576040517f08c379a000000000000000000000000000000000000000000000000000000000815260040161068c90612b11565b60405180910390fd5b6106a0838383610eab565b505050565b600060076000838152602001908152602001600020600101549050919050565b6106ce826106a5565b6106d7816111a4565b6106e183836111b8565b505050565b6106ee610d55565b73ffffffffffffffffffffffffffffffffffffffff168173ffffffffffffffffffffffffffffffffffffffff161461075b576040517f08c379a000000000000000000000000000000000000000000000000000000000815260040161075290612ba3565b60405180910390fd5b6107658282611299565b5050565b61078483838360405180602001604052806000815250610a04565b505050565b6000806107958361137b565b9050600073ffffffffffffffffffffffffffffffffffffffff168173ffffffffffffffffffffffffffffffffffffffff1603610806576040517f08c379a00000000000000000000000000000000000000000000000000000000081526004016107fd90612c0f565b60405180910390fd5b80915050919050565b60008073ffffffffffffffffffffffffffffffffffffffff168273ffffffffffffffffffffffffffffffffffffffff160361087f576040517f08c379a000000000000000000000000000000000000000000000000000000000815260040161087690612ca1565b60405180910390fd5b600360008373ffffffffffffffffffffffffffffffffffffffff1673ffffffffffffffffffffffffffffffffffffffff168152602001908152602001600020549050919050565b7f114e74f6ea3bd819998f78687bfcb11b140da08e9b7d222fa9c1f1ba1f2aa12281565b60006007600084815260200190815260200160002060000160008373ffffffffffffffffffffffffffffffffffffffff1673ffffffffffffffffffffffffffffffffffffffff16815260200190815260200160002060009054906101000a900460ff16905092915050565b6060600180546109649061294a565b80601f01602080910402602001604051908101604052809291908181526020018280546109909061294a565b80156109dd5780601f106109b2576101008083540402835291602001916109dd565b820191906000526020600020905b8154815290600101906020018083116109c057829003601f168201915b5050505050905090565b6000801b81565b610a006109f9610d55565b83836113b8565b5050565b610a15610a0f610d55565b83610e16565b610a54576040517f08c379a0000000000000000000000000000000000000000000000000000000008152600401610a4b90612b11565b60405180910390fd5b610a6084848484611524565b50505050565b60007f114e74f6ea3bd819998f78687bfcb11b140da08e9b7d222fa9c1f1ba1f2aa122610a92816111a4565b610a9c6008611580565b6000610aa86008611596565b9050610ab485826115a4565b610abe81856117c1565b809250505092915050565b6060610ad482610d0a565b6000600660008481526020019081526020016000208054610af49061294a565b80601f0160208091040260200160405190810160405280929190818152602001828054610b209061294a565b8015610b6d5780601f10610b4257610100808354040283529160200191610b6d565b820191906000526020600020905b815481529060010190602001808311610b5057829003601f168201915b505050505090506000610b7e611865565b90506000815103610b93578192505050610bd6565b600082511115610bc8578082604051602001610bb0929190612cfd565b60405160208183030381529060405292505050610bd6565b610bd18461187c565b925050505b919050565b610be4826106a5565b610bed816111a4565b610bf78383611299565b505050565b6000600560008473ffffffffffffffffffffffffffffffffffffffff1673ffffffffffffffffffffffffffffffffffffffff16815260200190815260200160002060008373ffffffffffffffffffffffffffffffffffffffff1673ffffffffffffffffffffffffffffffffffffffff16815260200190815260200160002060009054906101000a900460ff16905092915050565b60007f7965db0b000000000000000000000000000000000000000000000000000000007bffffffffffffffffffffffffffffffffffffffffffffffffffffffff1916827bffffffffffffffffffffffffffffffffffffffffffffffffffffffff19161480610d035750610d02826118e4565b5b9050919050565b610d1381611945565b610d52576040517f08c379a0000000000000000000000000000000000000000000000000000000008152600401610d4990612c0f565b60405180910390fd5b50565b600033905090565b816004600083815260200190815260200160002060006101000a81548173ffffffffffffffffffffffffffffffffffffffff021916908373ffffffffffffffffffffffffffffffffffffffff160217905550808273ffffffffffffffffffffffffffffffffffffffff16610dd083610789565b73ffffffffffffffffffffffffffffffffffffffff167f8c5be1e5ebec7d5bd14f71427d1e84f3dd0314c0f7b2291e5b200ac8c7c3b92560405160405180910390a45050565b600080610e2283610789565b90508073ffffffffffffffffffffffffffffffffffffffff168473ffffffffffffffffffffffffffffffffffffffff161480610e645750610e638185610bfc565b5b80610ea257508373ffffffffffffffffffffffffffffffffffffffff16610e8a846104e8565b73ffffffffffffffffffffffffffffffffffffffff16145b91505092915050565b8273ffffffffffffffffffffffffffffffffffffffff16610ecb82610789565b73ffffffffffffffffffffffffffffffffffffffff1614610f21576040517f08c379a0000000000000000000000000000000000000000000000000000000008152600401610f1890612d93565b60405180910390fd5b600073ffffffffffffffffffffffffffffffffffffffff168273ffffffffffffffffffffffffffffffffffffffff1603610f90576040517f08c379a0000000000000000000000000000000000000000000000000000000008152600401610f8790612e25565b60405180910390fd5b610f9d8383836001611986565b8273ffffffffffffffffffffffffffffffffffffffff16610fbd82610789565b73ffffffffffffffffffffffffffffffffffffffff1614611013576040517f08c379a000000000000000000000000000000000000000000000000000000000815260040161100a90612d93565b60405180910390fd5b6004600082815260200190815260200160002060006101000a81549073ffffffffffffffffffffffffffffffffffffffff02191690556001600360008573ffffffffffffffffffffffffffffffffffffffff1673ffffffffffffffffffffffffffffffffffffffff168152602001908152602001600020600082825403925050819055506001600360008473ffffffffffffffffffffffffffffffffffffffff1673ffffffffffffffffffffffffffffffffffffffff16815260200190815260200160002060008282540192505081905550816002600083815260200190815260200160002060006101000a81548173ffffffffffffffffffffffffffffffffffffffff021916908373ffffffffffffffffffffffffffffffffffffffff160217905550808273ffffffffffffffffffffffffffffffffffffffff168473ffffffffffffffffffffffffffffffffffffffff167fddf252ad1be2c89b69c2b068fc378daa952ba7f163c4a11628f55a4df523b3ef60405160405180910390a461119f838383600161198c565b505050565b6111b5816111b0610d55565b611992565b50565b6111c282826108ea565b6112955760016007600084815260200190815260200160002060000160008373ffffffffffffffffffffffffffffffffffffffff1673ffffffffffffffffffffffffffffffffffffffff16815260200190815260200160002060006101000a81548160ff02191690831515021790555061123a610d55565b73ffffffffffffffffffffffffffffffffffffffff168173ffffffffffffffffffffffffffffffffffffffff16837f2f8788117e7eff1d82e926ec794901d17c78024a50270940304540a733656f0d60405160405180910390a45b5050565b6112a382826108ea565b156113775760006007600084815260200190815260200160002060000160008373ffffffffffffffffffffffffffffffffffffffff1673ffffffffffffffffffffffffffffffffffffffff16815260200190815260200160002060006101000a81548160ff02191690831515021790555061131c610d55565b73ffffffffffffffffffffffffffffffffffffffff168173ffffffffffffffffffffffffffffffffffffffff16837ff6391f5c32d9c69d2a47ea670b442974b53935d1edc7fd64eb21e047a839171b60405160405180910390a45b5050565b60006002600083815260200190815260200160002060009054906101000a900473ffffffffffffffffffffffffffffffffffffffff169050919050565b8173ffffffffffffffffffffffffffffffffffffffff168373ffffffffffffffffffffffffffffffffffffffff1603611426576040517f08c379a000000000000000000000000000000000000000000000000000000000815260040161141d90612e91565b60405180910390fd5b80600560008573ffffffffffffffffffffffffffffffffffffffff1673ffffffffffffffffffffffffffffffffffffffff16815260200190815260200160002060008473ffffffffffffffffffffffffffffffffffffffff1673ffffffffffffffffffffffffffffffffffffffff16815260200190815260200160002060006101000a81548160ff0219169083151502179055508173ffffffffffffffffffffffffffffffffffffffff168373ffffffffffffffffffffffffffffffffffffffff167f17307eab39ab6107e8899845ad3d59bd9653f200f220920489ca2b5937696c3183604051611517919061224b565b60405180910390a3505050565b61152f848484610eab565b61153b84848484611a17565b61157a576040517f08c379a000000000000000000000000000000000000000000000000000000000815260040161157190612f23565b60405180910390fd5b50505050565b6001816000016000828254019250508190555050565b600081600001549050919050565b600073ffffffffffffffffffffffffffffffffffffffff168273ffffffffffffffffffffffffffffffffffffffff1603611613576040517f08c379a000000000000000000000000000000000000000000000000000000000815260040161160a90612f8f565b60405180910390fd5b61161c81611945565b1561165c576040517f08c379a000000000000000000000000000000000000000000000000000000000815260040161165390612ffb565b60405180910390fd5b61166a600083836001611986565b61167381611945565b156116b3576040517f08c379a00000000000000000000000000000000000000000000000000000000081526004016116aa90612ffb565b60405180910390fd5b6001600360008473ffffffffffffffffffffffffffffffffffffffff1673ffffffffffffffffffffffffffffffffffffffff16815260200190815260200160002060008282540192505081905550816002600083815260200190815260200160002060006101000a81548173ffffffffffffffffffffffffffffffffffffffff021916908373ffffffffffffffffffffffffffffffffffffffff160217905550808273ffffffffffffffffffffffffffffffffffffffff16600073ffffffffffffffffffffffffffffffffffffffff167fddf252ad1be2c89b69c2b068fc378daa952ba7f163c4a11628f55a4df523b3ef60405160405180910390a46117bd60008383600161198c565b5050565b6117ca82611945565b611809576040517f08c379a00000000000000000000000000000000000000000000000000000000081526004016118009061308d565b60405180910390fd5b806006600084815260200190815260200160002090816118299190613259565b507ff8e1a15aba9398e019f0b49df1a4fde98ee17ae345cb5f6b5e2c27f5033e8ce782604051611859919061259f565b60405180910390a15050565b606060405180602001604052806000815250905090565b606061188782610d0a565b6000611891611865565b905060008151116118b157604051806020016040528060008152506118dc565b806118bb84611b9e565b6040516020016118cc929190612cfd565b6040516020818303038152906040525b915050919050565b6000634906490660e01b7bffffffffffffffffffffffffffffffffffffffffffffffffffffffff1916827bffffffffffffffffffffffffffffffffffffffffffffffffffffffff1916148061193e575061193d82611c6c565b5b9050919050565b60008073ffffffffffffffffffffffffffffffffffffffff166119678361137b565b73ffffffffffffffffffffffffffffffffffffffff1614159050919050565b50505050565b50505050565b61199c82826108ea565b611a13576119a981611d4e565b6119b78360001c6020611d7b565b6040516020016119c89291906133c3565b6040516020818303038152906040526040517f08c379a0000000000000000000000000000000000000000000000000000000008152600401611a0a91906122f6565b60405180910390fd5b5050565b6000611a388473ffffffffffffffffffffffffffffffffffffffff16611fb7565b15611b91578373ffffffffffffffffffffffffffffffffffffffff1663150b7a02611a61610d55565b8786866040518563ffffffff1660e01b8152600401611a839493929190613452565b6020604051808303816000875af1925050508015611abf57506040513d601f19601f82011682018060405250810190611abc91906134b3565b60015b611b41573d8060008114611aef576040519150601f19603f3d011682016040523d82523d6000602084013e611af4565b606091505b506000815103611b39576040517f08c379a0000000000000000000000000000000000000000000000000000000008152600401611b3090612f23565b60405180910390fd5b805181602001fd5b63150b7a0260e01b7bffffffffffffffffffffffffffffffffffffffffffffffffffffffff1916817bffffffffffffffffffffffffffffffffffffffffffffffffffffffff191614915050611b96565b600190505b949350505050565b606060006001611bad84611fda565b01905060008167ffffffffffffffff811115611bcc57611bcb612630565b5b6040519080825280601f01601f191660200182016040528015611bfe5781602001600182028036833780820191505090505b509050600082602001820190505b600115611c61578080600190039150507f3031323334353637383961626364656600000000000000000000000000000000600a86061a8153600a8581611c5557611c546134e0565b5b04945060008503611c0c575b819350505050919050565b60007f80ac58cd000000000000000000000000000000000000000000000000000000007bffffffffffffffffffffffffffffffffffffffffffffffffffffffff1916827bffffffffffffffffffffffffffffffffffffffffffffffffffffffff19161480611d3757507f5b5e139f000000000000000000000000000000000000000000000000000000007bffffffffffffffffffffffffffffffffffffffffffffffffffffffff1916827bffffffffffffffffffffffffffffffffffffffffffffffffffffffff1916145b80611d475750611d468261212d565b5b9050919050565b6060611d748273ffffffffffffffffffffffffffffffffffffffff16601460ff16611d7b565b9050919050565b606060006002836002611d8e919061353e565b611d989190613580565b67ffffffffffffffff811115611db157611db0612630565b5b6040519080825280601f01601f191660200182016040528015611de35781602001600182028036833780820191505090505b5090507f300000000000000000000000000000000000000000000000000000000000000081600081518110611e1b57611e1a6135b4565b5b60200101907effffffffffffffffffffffffffffffffffffffffffffffffffffffffffffff1916908160001a9053507f780000000000000000000000000000000000000000000000000000000000000081600181518110611e7f57611e7e6135b4565b5b60200101907effffffffffffffffffffffffffffffffffffffffffffffffffffffffffffff1916908160001a90535060006001846002611ebf919061353e565b611ec99190613580565b90505b6001811115611f69577f3031323334353637383961626364656600000000000000000000000000000000600f861660108110611f0b57611f0a6135b4565b5b1a60f81b828281518110611f2257611f216135b4565b5b60200101907effffffffffffffffffffffffffffffffffffffffffffffffffffffffffffff1916908160001a905350600485901c945080611f62906135e3565b9050611ecc565b5060008414611fad576040517f08c379a0000000000000000000000000000000000000000000000000000000008152600401611fa490613658565b60405180910390fd5b8091505092915050565b6000808273ffffffffffffffffffffffffffffffffffffffff163b119050919050565b600080600090507a184f03e93ff9f4daa797ed6e38ed64bf6a1f0100000000000000008310612038577a184f03e93ff9f4daa797ed6e38ed64bf6a1f010000000000000000838161202e5761202d6134e0565b5b0492506040810190505b6d04ee2d6d415b85acef81000000008310612075576d04ee2d6d415b85acef8100000000838161206b5761206a6134e0565b5b0492506020810190505b662386f26fc1000083106120a457662386f26fc10000838161209a576120996134e0565b5b0492506010810190505b6305f5e10083106120cd576305f5e10083816120c3576120c26134e0565b5b0492506008810190505b61271083106120f25761271083816120e8576120e76134e0565b5b0492506004810190505b60648310612115576064838161210b5761210a6134e0565b5b0492506002810190505b600a8310612124576001810190505b80915050919050565b60007f01ffc9a7000000000000000000000000000000000000000000000000000000007bffffffffffffffffffffffffffffffffffffffffffffffffffffffff1916827bffffffffffffffffffffffffffffffffffffffffffffffffffffffff1916149050919050565b6000604051905090565b600080fd5b600080fd5b60007fffffffff0000000000000000000000000000000000000000000000000000000082169050919050565b6121e0816121ab565b81146121eb57600080fd5b50565b6000813590506121fd816121d7565b92915050565b600060208284031215612219576122186121a1565b5b6000612227848285016121ee565b91505092915050565b60008115159050919050565b61224581612230565b82525050565b6000602082019050612260600083018461223c565b92915050565b600081519050919050565b600082825260208201905092915050565b60005b838110156122a0578082015181840152602081019050612285565b60008484015250505050565b6000601f19601f8301169050919050565b60006122c882612266565b6122d28185612271565b93506122e2818560208601612282565b6122eb816122ac565b840191505092915050565b6000602082019050818103600083015261231081846122bd565b905092915050565b6000819050919050565b61232b81612318565b811461233657600080fd5b50565b60008135905061234881612322565b92915050565b600060208284031215612364576123636121a1565b5b600061237284828501612339565b91505092915050565b600073ffffffffffffffffffffffffffffffffffffffff82169050919050565b60006123a68261237b565b9050919050565b6123b68161239b565b82525050565b60006020820190506123d160008301846123ad565b92915050565b6123e08161239b565b81146123eb57600080fd5b50565b6000813590506123fd816123d7565b92915050565b6000806040838503121561241a576124196121a1565b5b6000612428858286016123ee565b925050602061243985828601612339565b9150509250929050565b60008060006060848603121561245c5761245b6121a1565b5b600061246a868287016123ee565b935050602061247b868287016123ee565b925050604061248c86828701612339565b9150509250925092565b6000819050919050565b6124a981612496565b81146124b457600080fd5b50565b6000813590506124c6816124a0565b92915050565b6000602082840312156124e2576124e16121a1565b5b60006124f0848285016124b7565b91505092915050565b61250281612496565b82525050565b600060208201905061251d60008301846124f9565b92915050565b6000806040838503121561253a576125396121a1565b5b6000612548858286016124b7565b9250506020612559858286016123ee565b9150509250929050565b600060208284031215612579576125786121a1565b5b6000612587848285016123ee565b91505092915050565b61259981612318565b82525050565b60006020820190506125b46000830184612590565b92915050565b6125c381612230565b81146125ce57600080fd5b50565b6000813590506125e0816125ba565b92915050565b600080604083850312156125fd576125fc6121a1565b5b600061260b858286016123ee565b925050602061261c858286016125d1565b9150509250929050565b600080fd5b600080fd5b7f4e487b7100000000000000000000000000000000000000000000000000000000600052604160045260246000fd5b612668826122ac565b810181811067ffffffffffffffff8211171561268757612686612630565b5b80604052505050565b600061269a612197565b90506126a6828261265f565b919050565b600067ffffffffffffffff8211156126c6576126c5612630565b5b6126cf826122ac565b9050602081019050919050565b82818337600083830152505050565b60006126fe6126f9846126ab565b612690565b90508281526020810184848401111561271a5761271961262b565b5b6127258482856126dc565b509392505050565b600082601f83011261274257612741612626565b5b81356127528482602086016126eb565b91505092915050565b60008060008060808587031215612775576127746121a1565b5b6000612783878288016123ee565b9450506020612794878288016123ee565b93505060406127a587828801612339565b925050606085013567ffffffffffffffff8111156127c6576127c56121a6565b5b6127d28782880161272d565b91505092959194509250565b600067ffffffffffffffff8211156127f9576127f8612630565b5b612802826122ac565b9050602081019050919050565b600061282261281d846127de565b612690565b90508281526020810184848401111561283e5761283d61262b565b5b6128498482856126dc565b509392505050565b600082601f83011261286657612865612626565b5b813561287684826020860161280f565b91505092915050565b60008060408385031215612896576128956121a1565b5b60006128a4858286016123ee565b925050602083013567ffffffffffffffff8111156128c5576128c46121a6565b5b6128d185828601612851565b9150509250929050565b600080604083850312156128f2576128f16121a1565b5b6000612900858286016123ee565b9250506020612911858286016123ee565b9150509250929050565b7f4e487b7100000000000000000000000000000000000000000000000000000000600052602260045260246000fd5b6000600282049050600182168061296257607f821691505b6020821081036129755761297461291b565b5b50919050565b7f4552433732313a20617070726f76616c20746f2063757272656e74206f776e6560008201527f7200000000000000000000000000000000000000000000000000000000000000602082015250565b60006129d7602183612271565b91506129e28261297b565b604082019050919050565b60006020820190508181036000830152612a06816129ca565b9050919050565b7f4552433732313a20617070726f76652063616c6c6572206973206e6f7420746f60008201527f6b656e206f776e6572206f7220617070726f76656420666f7220616c6c000000602082015250565b6000612a69603d83612271565b9150612a7482612a0d565b604082019050919050565b60006020820190508181036000830152612a9881612a5c565b9050919050565b7f4552433732313a2063616c6c6572206973206e6f7420746f6b656e206f776e6560008201527f72206f7220617070726f76656400000000000000000000000000000000000000602082015250565b6000612afb602d83612271565b9150612b0682612a9f565b604082019050919050565b60006020820190508181036000830152612b2a81612aee565b9050919050565b7f416363657373436f6e74726f6c3a2063616e206f6e6c792072656e6f756e636560008201527f20726f6c657320666f722073656c660000000000000000000000000000000000602082015250565b6000612b8d602f83612271565b9150612b9882612b31565b604082019050919050565b60006020820190508181036000830152612bbc81612b80565b9050919050565b7f4552433732313a20696e76616c696420746f6b656e2049440000000000000000600082015250565b6000612bf9601883612271565b9150612c0482612bc3565b602082019050919050565b60006020820190508181036000830152612c2881612bec565b9050919050565b7f4552433732313a2061646472657373207a65726f206973206e6f74206120766160008201527f6c6964206f776e65720000000000000000000000000000000000000000000000602082015250565b6000612c8b602983612271565b9150612c9682612c2f565b604082019050919050565b60006020820190508181036000830152612cba81612c7e565b9050919050565b600081905092915050565b6000612cd782612266565b612ce18185612cc1565b9350612cf1818560208601612282565b80840191505092915050565b6000612d098285612ccc565b9150612d158284612ccc565b91508190509392505050565b7f4552433732313a207472616e736665722066726f6d20696e636f72726563742060008201527f6f776e6572000000000000000000000000000000000000000000000000000000602082015250565b6000612d7d602583612271565b9150612d8882612d21565b604082019050919050565b60006020820190508181036000830152612dac81612d70565b9050919050565b7f4552433732313a207472616e7366657220746f20746865207a65726f2061646460008201527f7265737300000000000000000000000000000000000000000000000000000000602082015250565b6000612e0f602483612271565b9150612e1a82612db3565b604082019050919050565b60006020820190508181036000830152612e3e81612e02565b9050919050565b7f4552433732313a20617070726f766520746f2063616c6c657200000000000000600082015250565b6000612e7b601983612271565b9150612e8682612e45565b602082019050919050565b60006020820190508181036000830152612eaa81612e6e565b9050919050565b7f4552433732313a207472616e7366657220746f206e6f6e20455243373231526560008201527f63656976657220696d706c656d656e7465720000000000000000000000000000602082015250565b6000612f0d603283612271565b9150612f1882612eb1565b604082019050919050565b60006020820190508181036000830152612f3c81612f00565b9050919050565b7f4552433732313a206d696e7420746f20746865207a65726f2061646472657373600082015250565b6000612f79602083612271565b9150612f8482612f43565b602082019050919050565b60006020820190508181036000830152612fa881612f6c565b9050919050565b7f4552433732313a20746f6b656e20616c7265616479206d696e74656400000000600082015250565b6000612fe5601c83612271565b9150612ff082612faf565b602082019050919050565b6000602082019050818103600083015261301481612fd8565b9050919050565b7f45524337323155524953746f726167653a2055524920736574206f66206e6f6e60008201527f6578697374656e7420746f6b656e000000000000000000000000000000000000602082015250565b6000613077602e83612271565b91506130828261301b565b604082019050919050565b600060208201905081810360008301526130a68161306a565b9050919050565b60008190508160005260206000209050919050565b60006020601f8301049050919050565b600082821b905092915050565b60006008830261310f7fffffffffffffffffffffffffffffffffffffffffffffffffffffffffffffffff826130d2565b61311986836130d2565b95508019841693508086168417925050509392505050565b6000819050919050565b600061315661315161314c84612318565b613131565b612318565b9050919050565b6000819050919050565b6131708361313b565b61318461317c8261315d565b8484546130df565b825550505050565b600090565b61319961318c565b6131a4818484613167565b505050565b5b818110156131c8576131bd600082613191565b6001810190506131aa565b5050565b601f82111561320d576131de816130ad565b6131e7846130c2565b810160208510156131f6578190505b61320a613202856130c2565b8301826131a9565b50505b505050565b600082821c905092915050565b600061323060001984600802613212565b1980831691505092915050565b6000613249838361321f565b9150826002028217905092915050565b61326282612266565b67ffffffffffffffff81111561327b5761327a612630565b5b613285825461294a565b6132908282856131cc565b600060209050601f8311600181146132c357600084156132b1578287015190505b6132bb858261323d565b865550613323565b601f1984166132d1866130ad565b60005b828110156132f9578489015182556001820191506020850194506020810190506132d4565b868310156133165784890151613312601f89168261321f565b8355505b6001600288020188555050505b505050505050565b7f416363657373436f6e74726f6c3a206163636f756e7420000000000000000000600082015250565b6000613361601783612cc1565b915061336c8261332b565b601782019050919050565b7f206973206d697373696e6720726f6c6520000000000000000000000000000000600082015250565b60006133ad601183612cc1565b91506133b882613377565b601182019050919050565b60006133ce82613354565b91506133da8285612ccc565b91506133e5826133a0565b91506133f18284612ccc565b91508190509392505050565b600081519050919050565b600082825260208201905092915050565b6000613424826133fd565b61342e8185613408565b935061343e818560208601612282565b613447816122ac565b840191505092915050565b600060808201905061346760008301876123ad565b61347460208301866123ad565b6134816040830185612590565b81810360608301526134938184613419565b905095945050505050565b6000815190506134ad816121d7565b92915050565b6000602082840312156134c9576134c86121a1565b5b60006134d78482850161349e565b91505092915050565b7f4e487b7100000000000000000000000000000000000000000000000000000000600052601260045260246000fd5b7f4e487b7100000000000000000000000000000000000000000000000000000000600052601160045260246000fd5b600061354982612318565b915061355483612318565b925082820261356281612318565b915082820484148315176135795761357861350f565b5b5092915050565b600061358b82612318565b915061359683612318565b92508282019050808211156135ae576135ad61350f565b5b92915050565b7f4e487b7100000000000000000000000000000000000000000000000000000000600052603260045260246000fd5b60006135ee82612318565b9150600082036136015761360061350f565b5b600182039050919050565b7f537472696e67733a20686578206c656e67746820696e73756666696369656e74600082015250565b6000613642602083612271565b915061364d8261360c565b602082019050919050565b6000602082019050818103600083015261367181613635565b905091905056fea2646970667358221220423735300aaa4170bfef458334d03fb13db8515b5596afeb565dfb3b2ebb784764736f6c63430008130033",
  "linkReferences": {},
  "deployedLinkReferences": {}
}